:100000000C94800F0C94A80F0C94A80F0C94A80FBC
:100010000C94A80F0C94A80F0C94A80F0C94A80F84
:100020000C94A80F0C94A80F0C94A80F0C94A80F74
:100030000C94A80F0C94A80F0C94A80F0C94A80F64
:100040000C94741C0C94A80F0C94731B0C944D1BF3
:100050000C94A80F0C94A80F0C94A80F0C94A80F44
:100060000C9415160C94A80F000000000700010066
:100070000004110803F009000A060B01EF11000D3E
:10008000100D00F12B000D140D00EF4C0013111595
:1000900001F0750010111101F0970004060601EF40
:1000A0009A0006160801EFAB0006160801EFBC0027
:1000B00007080901EFC3000B0B0E02F6D30004077B
:1000C0000601FED70006030801F9DA000403060161
:1000D000FEDC0006110700F0E9000C110D01F00331
:1000E0000107110E03F012010C110D01F02C010C8F
:1000F000110D01F046010B110D01F05E010C110D07
:1001000001F078010C110D01F092010B110D01F0BD
:10011000AA010C110D01F0C4010C110D01F0DE015A
:10012000040C0601F5E40104100601F5EC010C0CC9
:100130000E01F5FE010C090E01F70C020C0C0E016C
:10014000F51E020C120F02EF390215151701EF719F
:100150000210121100EF95020E121102EFB50210FB
:10016000121101EFD9020F121102EFFB020D121052
:1001700002EF19030C120F02EF340310121201EFF9
:1001800058030E121202EF780304120702EF8103E4
:100190000B120E01EF9A0310121102EFBE030B12A5
:1001A0000F02EFD70311121502EFFE030F12120216
:1001B000EF200411121301EF47040E121002EF6733
:1001C0000411131301EF900410121102EFB4040F85
:1001D000121001EFD6040C120F02EFF1040E1212EE
:1001E00002EF11050F121000EF330517121700EF81
:1001F00067050F121001EF890510120F00EFAD0512
:100200000D120F01EFCB0506170802EFDD050711F0
:100210000700F0EC0506170800EFFE050C0B0E01B9
:10022000F00F060F020DFF04130604030600EF157E
:10023000060D0D0E01F42B060D120F02EF49060CF0
:100240000D0D01F45D060D120F01EF7B060D0D0E75
:1002500001F4910607120801EFA1060D120F01F437
:10026000BF060C120E02EFDA0604120702EFE306D5
:1002700006170700EFF5060C120E02EF1007041226
:100280000602EF1907130D1502F438070C0D0F02C3
:10029000F44C070D0D0F01F462070D120F02F480EC
:1002A000070D120F01F49E07080D0902F4AB070CAD
:1002B0000D0D01F4BF07060F0801F2CB070C0D0F5F
:1002C00002F4DF070D0D0D00F4F507120D1300F415
:1002D00013080D0D0D00F429080D120D00F4470848
:1002E0000A0D0C01F4580806170901EF6A080216F6
:1002F0000702EF700806170903EF82080C050C00CF
:10030000F9FFFFFFFF766660FFF0F3FCFF3FCF6170
:1003100098600E70738318FFF7FFBFFC7383181883
:10032000C7FFBFFDFFE31839C1CE0E7002007E0F7C
:10033000F87FE7AFB93DC80F403F00FF00FC05FF65
:1003400027F93FEBEFFE3FE07C008004003C060F06
:10035000C181FC30738C0C3181CE601FCC03F30063
:100360003C678019F8027F80CE7011860639C187FC
:10037000F8307E0C078007801FC03FE03CE03CE087
:100380003EE00FC007003F8C7FCCF1FCF0F8F07826
:10039000F8F87FFC3FDE1F8EFFFF660C738E71C77F
:1003A00038E38E38E38E1C71C38E1870C3871C38F7
:1003B000E3871C71C71C71CE38E71C638010235F74
:1003C000F3871B140E01C038070FFFFFFFF8700EF4
:1003D00001C03800FFF336C0FFFFC0FFF00C3086CD
:1003E00018610C30C218618430C01F83FC7FE79E07
:1003F000F0FF0FF0FF0FF0FF0FF0FF0FF0F79E7F01
:10040000E3FC0F00061C7FFFE3C78F1E3C78F1E37F
:10041000C78F1E1F83FC7FEF9FF0FF0F00F00F01BF
:10042000E03C0F81E03C03807FF7FF7FF01F07FC7B
:10043000FFEF1EF1E01E03C07807C01E00F00FF0B2
:10044000FF1F7FE7FC1F8003C0F81F07E1BC278C5C
:10045000F31E63D87BFFFFFFFE0780F01E03C03F43
:10046000E7FE7FE7006006F87FCFFEF1F00F00F0B7
:100470000F00FE1EFFE7FC3F000F83FC7FE79FF0AD
:100480000F78FFCFFEF9FF0FF0FF0FF0F79F7FE32C
:10049000FC0F80FFFFFFFF80E01C0701E0380F0129
:1004A000C0780F01E0380F01E03C000F03FC7FC76C
:1004B0009E70E70E39C1F83FC79EF0FF0FF0FF9F17
:1004C0007FE3FC1F801F03FC7FEF9EF0EF0FF0FF28
:1004D0000FF9F7FF3FF1EF00EF1E7FE7FC1F00FF72
:1004E000F000000FFFFFF000000FFF116C0010077D
:1004F00003F1FC7E0F80E00FC03F807F00F003FF20
:10050000FFFFFFF000000000FFFFFFFFF0000E0004
:10051000FC07F00FE01F00F07F1F8FE0F008001FC6
:1005200007FC7FEF9FF0FF0F00F00F01E03C07801A
:10053000F00E00E00000F00F00F000FE001FFC03D2
:10054000C0F03801C38007183D9987EC6C71C3C3B4
:10055000061E1830F181878C187C60C3638E3B8F38
:10056000DF8C3CF0700001C0000780801FFE001F80
:10057000C00003E003E003E007F007F007700F7826
:100580000E780E381E3C1C3C3FFC3FFE3FFE780EB2
:10059000780F700FF007FFC3FFCFFF3C3EF07BC129
:1005A000EF0FBFFCFFE3FFCF07BC0FF03FC0FF071B
:1005B000FFFEFFFBFF8007E01FF83FFC7C3E781F3B
:1005C000F80FF000F000F000F000F000F000F80F7D
:1005D000781F7C3E3FFE1FFC07F0FFE1FFE3FFE7D3
:1005E00083EF03DE07FC07F80FF01FE03FC07F80BA
:1005F000FF03FE07BC1F7FFCFFF1FF80FFF7FFBF7B
:10060000FDE00F007803C01FFCFFE7FF3C01E00F97
:10061000007803C01FFFFFFFFFC0FFFFFFFFFF00C9
:10062000F00F00F00FFEFFEFFEF00F00F00F00F0F4
:100630000F00F00F0003F00FFC3FFE3E1F7807781D
:1006400000F000F000F07FF07FF07FF00778077C8B
:100650000F3E1F3FFB0FFB03E3F03FC0FF03FC0F08
:10066000F03FC0FF03FFFFFFFFFFFF03FC0FF03F62
:10067000C0FF03FC0FF03FC0F0FFFFFFFFFFFFFFD5
:10068000FFFF01E03C0780F01E03C0780F01E03C53
:1006900007F8FF1FE3FC7BFE7FC3E0F03EF03CF079
:1006A00078F0F0F1E0F3C0F780FF00FF80FF80FBFF
:1006B000C0F1E0F0F0F0F0F078F03CF03EF01EF029
:1006C0001E03C0780F01E03C0780F01E03C0780FC6
:1006D00001E03C07FFFFFFFCF81FFE0FFF0FFF8745
:1006E000FFC3FFE1FFF9FFFCEFFE77FB3BFDDDFE03
:1006F000FCFF7E7F9F3FCF9FE78FF3C7F8E3C0F0FB
:100700001FF03FF07FE0FFE1FFC3FDC7FB8FF39FCA
:10071000E73FC77F8FFF0FFE1FFC1FF81FF03FE072
:100720003C03E00FFC0FFF87C7C780F3C07BC01FEF
:10073000E00FF007F803FC01FE00F780F3C078F04B
:10074000F87FFC1FFC03F800FFE3FFEFFFBC1FF086
:100750003FC0FF03FC1FFFFBFFCFFE3C00F003C0C8
:100760000F003C00F003C00003E00FFC0FFF87C741
:10077000C780F3C07BC01FE00FF007F803FC01FE49
:1007800004F787F3C3F8F0F87FFC1FFF83F18000C4
:1007900000FFF8FFFCFFFCF03EF01EF01EF01EF024
:1007A0003CFFF8FFF0FFF8F03CF03CF03CF03CF090
:1007B0003CF03CF01F0FC07FE1FFE7C3EF03DE001A
:1007C0003C007F007FF03FF80FF801F001FE03DEF0
:1007D0000FBFFE3FF81FC0FFFFFFFFF0F00F00F05C
:1007E0000F00F00F00F00F00F00F00F00F00F00FFF
:1007F00000F0F03FC0FF03FC0FF03FC0FF03FC0F11
:10080000F03FC0FF03FC0FF03FC0F7879FFE3FF0B3
:100810003F00700EF03DE079C0E381C787870E0E80
:100820001C1E781CE039C073807E00FC01F801E0DA
:1008300003C0078070381CE0F079E1F0F3C3E1E316
:1008400087C3870F870E3B9E1E77381CEE7039CC0E
:10085000E07399C06E3F00FC7E01F8FC03F0F803E2
:10086000E1E00783C00F0780F03CF0F9E1E1E783A6
:10087000CF03FC03F007E007800F003F00FF01FEFD
:10088000079E0F1E3C3CF83DE078F01E781E783C39
:100890003C3C3C781E780E700FF007E007E003C088
:1008A00003C003C003C003C003C003C003C0FFFFF5
:1008B000FFFFFE01F00F00F00F00F80780780780BF
:1008C0007C03C03C03C01FFFFFFFFFC0FFFFFCF322
:1008D000CF3CF3CF3CF3CF3CF3CF3CFFFFC0C18113
:1008E0000306040C1810306040C1810306FFFFCFDF
:1008F0003CF3CF3CF3CF3CF3CF3CF3CFFFFFC00F33
:1009000000F00F01F81B839C39C30C70E70EE070F8
:10091000FFFFFFFCE6301F83FF1FFDE1E00F03F93F
:10092000FFDF1EF0F78FBFFCFFE3CF80F007803CB6
:1009300001E00F007BC3FF9FFEF8F783FC1FE0FF81
:1009400007F83FE3DFFEFFE7BE000F83FE7FF78F70
:10095000F07F00F00F00F0778F7FF3FE0F800078BC
:1009600003C01E00F0078FBCFFEFFF78FF83FC1F62
:10097000E0FF07F83DE3EFFF3FF8FBC01F81FE1FDC
:10098000F9F1CF077FFBFFDE00F003C39FFC7FC0C0
:10099000F8003EFDFBC79FBF3C78F1E3C78F1E3CCC
:1009A00078F01E79FBDFFEF1FF07F83FC1FE0FF084
:1009B0007FC7DFFE7FF1F7803C01FF1E7FF0FE0066
:1009C000F00F00F00F00F00F7CFFEFFFF9FF0FF0CA
:1009D000FF0FF0FF0FF0FF0FF0FF0FFFF00FFFFF13
:1009E000FFFFFFFF3CF3C000F3CF3CF3CF3CF3CF5E
:1009F0003CF3CFFFFF80F00F00F00F00F00F0FF17E
:100A0000EF3CF78FF0FF0FF8FF8F3CF1CF1EF0EFB8
:100A10000FFFFFFFFFFFFFFFFFFFF78F9FFBFBFFB6
:100A2000FFFCF8FF1E1FE3C3FC787F8F0FF1E1FE90
:100A30003C3FC787F8F0FF1E1EF7CFFEFFFF9FF079
:100A4000FF0FF0FF0FF0FF0FF0FF0FF0F00F81FF2F
:100A50001FFCF1EF07F83FC1FE0FF07BC79FFC7F43
:100A6000C0F800F7C7FF3FFDF1EF07F83FC1FE0FE9
:100A7000F07FC7BFFDFFCF787803C01E00F007806E
:100A8000000F79FFDFFEF1FF07F83FC1FE0FF07B9B
:100A9000C7DFFE7FF1F7803C01E00F007803C0F371
:100AA000F7FFF8F0F0F0F0F0F0F0F0F01F87FCFF47
:100AB000EF0FF80FF07FE0FF01FF0FFFE7FE1F8051
:100AC00079E7BFFDE79E79E79E7DF3C0F0FF0FF069
:100AD000FF0FF0FF0FF0FF0FF0FF1FFFF7FF3EF0DB
:100AE000F07B839E1CF1E38E1C707783B81DC07E63
:100AF00003E01F007000F0E1DC78771F3DE7CF795D
:100B0000B38E6CE3BB38EEFC1F3F07C7C1F1F07C2E
:100B1000780E1E0078F3C78F783B81FC07C01E015A
:100B2000F01FC0EF0F78F1E78700F07B839E1C7108
:100B3000E38E1E707383B81FC07E03E00F00700346
:100B4000803C07C03E01E000FFFFFFFC0F0783C1B0
:100B5000E0F0783C0FFFFFFFC01CF3CE38E38E3887
:100B6000E3BCF0E38E38E38E3CF1C0FFFFFFFFFFF4
:100B7000F0E38F1C71C71C71C70F3DC71C71C71CE8
:100B8000F3CE00780FE0CF307F01E00000000000DE
:100B90000000000000000000000000000000000055
:100BA0000000000000000000000000000000000045
:100BB0000000000000000000000000000000000035
:100BC0000000000000000000000000000000000025
:100BD0000000000000000000000000000000000015
:100BE0000000000000000000000000000000000005
:100BF00000000000000000000000000000000000F5
:100C000000000000000000000000000000000000E4
:100C100000000000000000000000000000000000D4
:100C200000000000000000000000000000000000C4
:100C300000000000000000000000000000000000B4
:100C4000000000000000180000000000000000008C
:100C5000000000000018000000000000000000007C
:100C6000000000003C000000000000000000000048
:100C70000000007E000000000000000000000000F6
:100C800000007E00000000000000000000000000E6
:100C900000FF000000000000000000000000000055
:100CA000FF0000000000000000000000000001FF45
:100CB0008000000000000000000000000001FF8034
:100CC00000000000000000000000000003FFC00062
:100CD000000000000000000000000007FFE000002E
:100CE0000000000000000000000007FFE00000001E
:100CF0000000000000000000000FFFF000000000F6
:100D000000000000000000000FFFF00000000000E5
:100D1000000000000000001FFFF8000000000000BD
:100D20000000000000001FFFF800000000000000AD
:100D300000000000003FFFFC000000000000000079
:100D4000000000007FFFFE00000000000000000027
:100D50000000007FFFFE0000000000000000000017
:100D60000000FFFFFF000000000000000000000086
:100D700000FFFFFF00000000000000000000000175
:100D8000FFFFFF800000000000000000000003FFE4
:100D9000FFFFC00000000000000000000003FFFF94
:100DA000FFC00000000000000000000007FFFFFF80
:100DB000E00000000000000000000007FFFFFFE06F
:100DC000000000000000000000000FFFFFFFF00027
:100DD0000000000000000000000FFFFFFFF0000017
:100DE00000000000000000001FFFFFFFF8000000EF
:100DF000000000000000003FFFFFFFFC00000000BB
:100E00000000000000003FFFFFFFFC0000000000AA
:100E100000000000007FFFFFFFFE00000000000058
:100E2000000000007FFFFFFFFE0000000000000048
:100E3000000000FFFFFFFFFF0000000000000000B7
:100E40000000FFFFFFFFFF000000000000000000A7
:100E500001FFFFFFFFFF8000000000000000000313
:100E6000FFFFFFFFFFC0000000000000000003FFC5
:100E7000FFFFFFFFC0000000000000000007FFFEB2
:100E8000007FFFE0000000000000000007FFFE0000
:100E90007FFFE000000000000000000FFFFE007F69
:100EA000FFF000000000000000001FFFFE007FFFB9
:100EB000F800000000000000001FFFFE007FFFF8A8
:100EC00000000000000000003FFFFE007FFFFC006C
:100ED000000000000000003FFFFE007FFFFC00005C
:100EE0000000000000007FFFFE007FFFFE0000000A
:100EF00000000000007FFFFE007FFFFE00000000FA
:100F000000000000FFFFFE007FFFFF000000000068
:100F1000000001FFFFFE007FFFFF800000000000D7
:100F20000001FFFFFE007FFFFF80000000000000C7
:100F300003FFFFFE007FFFFFC00000000000000372
:100F4000FFFFFE007FFFFFC000000000000007FF62
:100F5000FFFE007FFFFFE000000000000007FFFF32
:100F6000FE007FFFFFE00000000000000FFFFFFE1B
:100F7000007FFFFFF00000000000001FFFFFFE00E9
:100F80007FFFFFF80000000000001FFFFFFE007F52
:100F9000FFFFF80000000000003FFFFFFE007FFFA2
:100FA000FFFC0000000000003FFFFFFFFFFFFFFF0E
:100FB000FC0000000000007FFFFFFFFFFFFFFFFEBF
:100FC000000000000000FFFFFFFFFFFFFFFFFF002A
:100FD0000000000000FFFFFFFFFFFFFFFFFF00001A
:100FE00000000001FFFFFFFFFFFFFFFFFF80000089
:100FF000000001FFFFFFFFFFFFFFFFFF8000000079
:101000000003FFFFFFFFFFFFFFFFFFC00000000026
:1010100003FFFFFFFFFFFFFFFFFFC000000000070F
:10102000FFFFFFFFFFFFFFFFFFE0000000000FFFDB
:10103000FFFFFFFFFFFFFFFFF0000000000FFFFFBB
:10104000FFFE007FFFFFFFF0000000001FFFFFFF1B
:10105000FE007FFFFFFFF8000000001FFFFFFFFE04
:10106000007FFFFFFFF8000000003FFFFFFFFE00D2
:101070007FFFFFFFFC000000003FFFFFFFFE007F3F
:10108000FFFFFFFC000000007FFFFFFFFE007FFF6F
:10109000FFFFFE00000000FFFFFFFFFE007FFFFFDD
:1010A000FFFF00000000FFFFFFFFFE007FFFFFFFCC
:1010B000FF00000001FFFFFFFFFE007FFFFFFFFFBB
:1010C00080000001FFFFFFFFFE007FFFFFFFFF80AA
:1010D000000003FFFFFFFFFFFFFFFFFFFFFFC00058
:1010E0000007FFFFFFFFFFFFFFFFFFFFFFE0000024
:1010F00007FFFFFFFFFFFFFFFFFFFFFFE000000F05
:10110000FFFFFFFFFFFFFFFFFFFFFFF000000FFFEC
:10111000FFFFFFFFFFFFFFFFFFFFF000001FFFFFCC
:10112000FFFFFFFFFFFFFFFFFFF800001FFFFFFFB4
:10113000FFFFFFFFFFFFFFFFF800003FFFFFFFFF84
:10114000FFFFFFFFFFFFFFFC00007FFFFFFFFFFF30
:10115000FFFFFFFFFFFFFE00007FFFFFFFFFFFFF1E
:10116000FFFFFFFFFFFE0000FFFFFFFFFFFFFFFF8E
:10117000FFFFFFFFFF0000FFFFFFFFFFFFFFFFFF7D
:10118000FFFFFFFF0001FFFFFFFFFFFFFFFFFFFF6C
:10119000FFFFFF8001FFFFFFFFFFFFFFFFFFFFFFDC
:1011A000FFFF8003FFFFFFFFFFFFFFFFFFFFFFFFCA
:1011B000FFC0000000000000000000000000000070
:1011C000000000000000000000000000000000001F
:1011D000000000000000000000000000000000000F
:1011E00000000000000000000000000000000000FF
:1011F00000000000000000000000000000000000EF
:1012000000000000000000000000000000000000DE
:1012100000000000000000000000000000000000CE
:1012200000000000000000000000000000000000BE
:1012300000000000000000000000000000000000AE
:10124000000000000000000000000000000000009E
:10125000000000000000000000000000000000008E
:10126000000000000000000000000000000000007E
:10127000000000000000000000000000000000006E
:10128000000000000000000000000000000000005E
:10129000000000000000000000000000000000004E
:1012A000000000000000000000000000000000003E
:1012B000000000000000000000000000000000002E
:1012C000000000000000000000000000000000001E
:1012D000000000000000000000000000000000000E
:1012E00000000000000000000000000000000000FE
:1012F00000000000000000000000000000000000EE
:1013000000000000000000000000000000000000DD
:1013100000000000000000000000000000000000CD
:1013200000000000000000000000000003FFFFFFBD
:10133000FFFFFFFFC000000000000003FFFFFFFFF2
:10134000FFFFFFC000000000000003FFFFFFFFFFE2
:10135000FFFFC000000000000003FFFFFFFFFFFFD2
:10136000FFC000000000000003FFFFFFFFFFFFFFC2
:10137000C000000000000003FFFFFFFFFFFFFFC0F1
:1013800000000000000003FFFFFFFFFFFFFFC000A1
:10139000000000000003FFFFFFFFFFFFFFC0000091
:1013A0000000000003FFFFFFFFFFFFFFC000000081
:1013B00000000003FFFFFFFFFFFFFFC00000000071
:1013C000000003FF0000000000FFC000000000005C
:1013D0000003FF0000000000FFC00000000000004C
:1013E00003FF0000000000FFC00000000000000339
:1013F000FF0000000000FFC000000000000003FF2D
:101400000000000000FFC000000000000003FF001B
:1014100000000000FFC000000000000003FF00000B
:10142000000000FFC000000000000003FF000000FB
:101430000000FFC000000000000003FF00000000EB
:1014400000FFC000000000000003FF0000000000DB
:10145000FFC000000000000003FF0000000000FFCC
:10146000C000000000000003FF0000000000FFC0FB
:1014700000000000000003FF0000000000FFC000AB
:10148000000000000003FF0000000000FFC000009B
:101490000000000003FF0000000000FFC00000008B
:1014A00000000003FF0000000000FFC0000000007B
:1014B000000003FF0000000000FFC000000000006B
:1014C0000003FF0000000000FFC00000000000005B
:1014D00003FF8000000001FFC000000000000003C7
:1014E000FFC000000003FFC000000000000003FF79
:1014F000E000000007FFC000000000000001FFF056
:101500000000000FFF8000000000000000FFF80056
:1015100000001FFF00000000000000007FFC000032
:10152000003FFE00000000000000003FFE00000041
:101530007FFC00000000000000001FFF000000FF13
:10154000F800000000000000000FFF800001FFF025
:10155000000000000000000007FFC00003FFE000E3
:101560000000000000000003FFE00007FFC00000D3
:1015700000000000000001FFF0000FFF80000000ED
:10158000000000000000FFF8001FFF000000000046
:1015900000000000007FFC003FFE00000000000093
:1015A000000000003FFE007FFC0000000000000083
:1015B0000000001FFF00FFF8000000000000000016
:1015C00000000FFF81FFF00000000000000000009D
:1015D0000007FFC3FFE00000000000000000000063
:1015E00003FFE7FFC0000000000000000000000152
:1015F000FFFFFF800000000000000000000000FF6F
:10160000FFFF0000000000000000000000007FFF5E
:10161000FE0000000000000000000000007FFFFE50
:10162000000000000000000000000000FFFFFF00BD
:101630000000000000000000000001FFFFFF80002C
:1016400000000000000000000003FFE7FFC00000F2
:10165000000000000000000007FFC3FFE0000000E2
:10166000000000000000000FFF81FFF000000000FC
:101670000000000000001FFF00FFF8000000000055
:1016800000000000003FFE007FFC000000000000A2
:10169000000000007FFC003FFE0000000000000092
:1016A000000000FFF8001FFF000000000000000025
:1016B0000001FFF0000FFF800000000000000000AC
:1016C00003FFE00007FFC00000000000000000076B
:1016D000FFC00003FFE000000000000000000FFF5B
:1016E000800001FFF000000000000000001FFF006C
:1016F0000000FFF800000000000000003FFE0000B6
:10170000007FFC00000000000000007FFC000000E3
:101710003FFE0000000000000000FFF80000001F76
:10172000FF0000000000000001FFF00000000FFFBC
:101730008000000000000003FFE000000007FFC081
:1017400000000000000003FFC000000003FFC00015
:10175000000000000003FF8000000001FFC0000047
:101760000000000003FF0000000000FFC0000000B8
:1017700000000003FF0000000000FFC000000000A8
:10178000000003FF0000000000FFC0000000000098
:101790000003FF0000000000FFC000000000000088
:1017A00003FF0000000000FFC00000000000000375
:1017B000FF0000000000FFC000000000000003FF69
:1017C0000000000000FFC000000000000003FF0058
:1017D00000000000FFC000000000000003FF000048
:1017E000000000FFC000000000000003FF00000038
:1017F0000000FFC000000000000003FF0000000028
:1018000000FFC000000000000003FF000000000017
:10181000FFC000000000000003FF0000000000FF08
:10182000C000000000000003FF0000000000FFC037
:1018300000000000000003FF0000000000FFC000E7
:10184000000000000003FF0000000000FFC00000D7
:101850000000000003FF0000000000FFC0000000C7
:1018600000000003FF0000000000FFC000000000B7
:10187000000003FFFFFFFFFFFFFFC00000000000AC
:101880000003FFFFFFFFFFFFFFC00000000000009C
:1018900003FFFFFFFFFFFFFFC00000000000000389
:1018A000FFFFFFFFFFFFFFC000000000000003FF7D
:1018B000FFFFFFFFFFFFC000000000000003FFFF6D
:1018C000FFFFFFFFFFC000000000000003FFFFFF5D
:1018D000FFFFFFFFC000000000000003FFFFFFFF4D
:1018E000FFFFFFC000000000000003FFFFFFFFFF3D
:1018F000FFFFC000000000000003FFFFFFFFFFFF2D
:10190000FFC0000000000000000000000000000018
:1019100000000000000000000000000000000000C7
:1019200000000000000000000000000000000000B7
:1019300000000000000000000000000000000000A7
:101940000000000000000000000000000000000097
:101950000000000000000000000000000000000087
:101960000000000000000000000000000000000077
:101970000000000000000000000000000000000067
:101980000000000000000000000000000000000057
:1019900000000000000000000000000103680020BB
:1019A0007E1D00000000003E5B4F5B3E3E6B4F6BB8
:1019B0003E1C3E7C3E1C183C7E3C181C577D571C30
:1019C0001C5E7F5E1C00183C1800FFE7C3E7FF00A9
:1019D00018241800FFE7DBE7FF30483A060E2629F7
:1019E000792926407F050507407F05253F5A3CE7BA
:1019F0003C5A7F3E1C1C08081C1C3E7F14227F2280
:101A0000145F5F005F5F06097F017F006689956A4A
:101A1000606060606094A2FFA29408047E040810D5
:101A2000207E201008082A1C08081C2A08081E10FE
:101A30001010100C1E0C1E0C30383E3830060E3EB6
:101A40000E06000000000000005F00000007000715
:101A500000147F147F14242A7F2A1223130864623F
:101A600036495620500008070300001C22410000A0
:101A700041221C002A1C7F1C2A08083E08080080FE
:101A80007030000808080808000060600020100896
:101A900004023E5149453E00427F40007249494997
:101AA000462141494D331814127F102745454539C9
:101AB0003C4A4949314121110907364949493646CD
:101AC0004949291E000014000000403400000008AD
:101AD0001422411414141414004122140802015950
:101AE00009063E415D594E7C1211127C7F494949DD
:101AF000363E414141227F4141413E7F4949494172
:101B00007F090909013E414151737F0808087F00A0
:101B1000417F41002040413F017F081422417F4026
:101B20004040407F021C027F7F0408107F3E4141FD
:101B3000413E7F090909063E4151215E7F0919296D
:101B400046264949493203017F01033F4040403F57
:101B50001F2040201F3F4038403F63140814630398
:101B6000047804036159494D43007F414141020417
:101B7000081020004141417F04020102044040401E
:101B80004040000307080020545478407F28444414
:101B9000383844444428384444287F38545454182E
:101BA00000087E090218A4A49C787F080404780029
:101BB000447D40002040403D007F1028440000410B
:101BC0007F40007C047804787C080404783844441E
:101BD0004438FC1824241818242418FC7C08040415
:101BE00008485454542404043F44243C4040207C7E
:101BF0001C2040201C3C4030403C44281028444CD1
:101C00009090907C4464544C44000836410000009D
:101C1000770000004136080002010204023C26233E
:101C2000263C1EA1A161123A4040207A38545455F6
:101C300059215555794122545478422155547840C0
:101C400020545579400C1E52721239555555593948
:101C50005454545939555454580000457C4100029D
:101C6000457D420001457C407D1211127DF0282502
:101C700028F07C545545002054547C547C0A097F3C
:101C80004932494949323A4444443A324A48483050
:101C90003A4141217A3A42402078009DA0A07D3D02
:101CA0004242423D3D4040403D3C24FF2424487E8A
:101CB0004943662B2FFC2F2BFF0929F620C0887E75
:101CC000090320545479410000447D413048484A7A
:101CD00032384040227A007A0A0A727D0D19317D2D
:101CE0002629292F28262929292630484D40203801
:101CF0000808080808080808382F10C8ACBA2F10C0
:101D00002834FA00007B000008142A142222142A26
:101D100014085500550055AA55AA55AAFF55FF5558
:101D2000FF000000FF00101010FF00141414FF004B
:101D30001010FF00FF1010F010F0141414FC001429
:101D400014F700FF0000FF00FF1414F404FC141447
:101D500017101F10101F101F1414141F0010101044
:101D6000F0000000001F101010101F10101010F0D5
:101D700010000000FF101010101010101010FF10B5
:101D8000000000FF140000FF00FF00001F101700FC
:101D900000FC04F414141710171414F404F40000D5
:101DA000FF00F714141414141414F700F714141487
:101DB000171410101F101F141414F4141010F01026
:101DC000F000001F101F0000001F14000000FC1492
:101DD0000000F010F01010FF10FF141414FF141086
:101DE00010101F00000000F010FFFFFFFFFFF0F0D9
:101DF000F0F0F0FFFFFF0000000000FFFF0F0F0FEB
:101E00000F0F3844443844FC4A4A4A347E020206E2
:101E100006027E027E0263554941633844443C0415
:101E2000407E201E2006027E020299A5E7A5991C8D
:101E30002A492A1C4C7201724C304A4D4D303048B0
:101E4000784830BC625A463D3E494949007E01010E
:101E5000017E2A2A2A2A2A44445F444440514A44A3
:101E60004040444A51400000FF0103E080FF000071
:101E700008086B6B083612362436060F090F060069
:101E80000018180000001010003040FF0101001F72
:101E900001011E00191D1712003C3C3C3C000000D3
:101EA000000000000000240027002A0000000000BD
:101EB00023002600290000000008000201000003A2
:101EC00004070000000000000000010204081020C8
:101ED00040800102040810200102040810200000C4
:101EE0000000250028002B0004040404040404045A
:101EF00002020202020203030303030352293729E9
:101F000011241FBECFEFD8E0DEBFCDBF24E0A8EA8A
:101F1000B1E001C01D92AF30B207E1F711E0A0E0DF
:101F2000B1E0E2E5FCE502C005900D92A83AB107E8
:101F3000D9F71FE0CFE7DFE004C02197FE010E9440
:101F4000F22BCE37D107C9F70E94A6210C941C2E84
:101F50000C94000085ED8093BC008091BC0084FD52
:101F6000FCCF1092510208954091DB01262F30E002
:101F7000240F311D21323105DCF42091510224302F
:101F8000C9F4FC0180E090E0861758F43091DB0141
:101F90002191DC01A754BE4FA30FB11D2C930196D4
:101FA000F3CF8091DB01680F6093DB0180E008953F
:101FB00081E0089582E008950895E0910A028091F9
:101FC0000902E81730F4F0E0E55FFD4F808190E012
:101FD00008958FEF9FEF089590910A028091090272
:101FE000981750F4E92FF0E0E55FFD4F208130E0D5
:101FF0009F5F90930A0202C02FEF3FEFC90108953F
:102000008091090290E020910A02821B91090895B3
:10201000CF92DF92EF92FF920F931F93CF93DF93B4
:102020007C01262F972F8A0180915202882391F0FC
:10203000C62FD72F6E01C40ED51ECC15DD0571F04D
:102040006991D701ED91FC910190F081E02DC701DC
:102050000995F3CF642F822F0E94B40FC801DF913E
:10206000CF911F910F91FF90EF90DF90CF90089547
:10207000CF93DF931F92CDB7DEB7698320915202D1
:102080002223D1F020917402203240F021E030E090
:10209000FC013383228380E090E015C080915302DD
:1020A000E82FF0E0EC5AFD4F998190838F5F809389
:1020B00053028093740205C061E0CE0101960E9434
:1020C000B40F81E090E00F90DF91CF9108950895D3
:1020D000FC016370658B8481958126813781613035
:1020E00039F0633029F091878087338722870895FC
:1020F000318720879387828708952F923F924F924E
:102100005F926F927F928F929F92AF92BF92CF9287
:10211000DF92EF92FF920F931F93CF93DF93CDB790
:10212000DEB76C970FB6F894DEBF0FBECDBF9C8FA5
:102130008B8F5B011A011F830E833701C982DC017B
:1021400058964D915C9159974115510509F0E5C09C
:1021500018968D919C911997681779070CF0CAC150
:102160001A968D919C911B97281639060CF0C2C1C6
:102170008C2C912CFB0136E0C39EE00DF11D112447
:10218000FB87EA871E161F060CF0B4C1C40133E0BA
:10219000880F991F3A95E1F79D878C87820D931DD3
:1021A000181619060CF0A6C157968C91811103C020
:1021B000203B08F02F5FAB8DBC8DED91FC9111970A
:1021C0000284F385E02DCD012A8F09952A8DB5E093
:1021D0002B9F90011124F5013596FF87EE87BB8276
:1021E000AA822501A9014A195B09598B488BC101B3
:1021F00008969B8B8A8BE889F989E40DF51DEE55CD
:10220000F64E9491988761013D822C82A885A0FFAB
:1022100013C0AB8DBC8DED91FC91B981B13031F41F
:102220000484F585E02D2E813F8116C00684F78554
:10223000E02DEE80FF801AC0EE81FF816E167F06D2
:10224000F1F0AB8DBC8DED91FC91B981B13051F4C1
:102250000484F585E02D9301A601B2018B8D9C8D40
:1022600009950DC00684F785E02D73018401940162
:102270004C815D816A817B818B8D9C8D0995E88580
:10228000E695E887FFEFCF1ADF0A2C813D81280D04
:10229000391D3D832C834A895B89C416D50609F014
:1022A000B5CF5FEF451A550A8A819B81880D991D2C
:1022B0009B838A83AE85BF854A165B0609F09BCF58
:1022C000EE81FF816E167F0609F4F2C0EB8DFC8D66
:1022D000A081B181F981F13079F4B5016B5F7F4F55
:1022E0005096ED91FC915197830128E030E0A101D7
:1022F0008B8D9C8D0995DCC06A857B856819790971
:102300001E96ED91FC911F9773010C851D8594011C
:10231000A1018B8D9C8D0995CBC0FA0134969491C7
:10232000329765917491291BCB01B7E02B9F800DEB
:10233000911D1124FA01259134913B8B2A8BFC01CC
:10234000459154915B834A83FC013296C490319647
:1023500054915E87329614913196D490898182305F
:1023600058F0612E012E000C7708AD2D0D2C000CBD
:10237000BB0BB987A88704C019861886612C712CFD
:10238000AB8DBC8DED91FC9111970284F385E02D0E
:10239000CD010995B9818B2E912C689CC001699C57
:1023A000900D789C900D1124FC01EA0DFB1DFD871A
:1023B000EC871C82712C612CE12F110FFF0B950112
:1023C0002E0F3F1F3B872A87AC0CB11CA5014E0F77
:1023D0005F1F5F8B4E8BC1018D0D911DD7FC9A95B0
:1023E000998F888F4E85641608F062C0862D90E024
:1023F00048855985480F591F489D9001499D300DCA
:10240000589D300D1124D901A20DB31DB98BA88B95
:10241000AA84BB844C845D84DC80BA85DB1AE88D99
:10242000F98DE80FF91FFD8BEC8B8D2D8A0D2E8910
:102430003F89A216B306B9F1877061F48A819B8146
:102440000196EA89FB89AA81BB81EA0FFB1F749080
:102450009B838A8377FE20C0AB8DBC8DED91FC9170
:10246000B981B13061F40484F585E02D2E813F817E
:102470004C895D89B5018B8D9C8D09950DC00684B5
:10248000F785E02DEE80FF80840194014889598909
:10249000B2018B8D9C8D0995770CEFEFAE1ABE0AB9
:1024A000480C591CC2CF3C813C0D3C8363949ACFAD
:1024B000AB8DBC8DED91FC9111970688F789E02DCD
:1024C000CD016C960FB6F894DEBF0FBECDBFDF9185
:1024D000CF911F910F91FF90EF90DF90CF90BF9021
:1024E000AF909F908F907F906F905F904F903F90B4
:1024F0002F9009946C960FB6F894DEBF0FBECDBF37
:10250000DF91CF911F910F91FF90EF90DF90CF90CF
:10251000BF90AF909F908F907F906F905F904F9003
:102520003F902F900895AF92BF92CF92EF92FF927B
:102530000F931F93CF93DF93EC01262F888D998DF6
:10254000009709F040C06A3059F41D861C862C891A
:102550008E859F8538E0239F800D911D112441C0F9
:102560006D3009F4AAC08E898823C1F03C898C851E
:102570009D8546E0349F800D911D11244885598525
:10258000481759075CF41D861C868E859F8548E098
:10259000349F800D911D11249F878E87EA88FB88C8
:1025A000088919894E855F856C857D85CC88CE012B
:1025B0000E947D102C898C859D8536E0239F800D9F
:1025C000911D112442C06A3079F41D861C862C8925
:1025D000FC013696E4918E859F852E9F800D911D7E
:1025E00011249F878E8769C06D3009F466C0FC0195
:1025F00034963491631708F460C03196E491E6177D
:1026000008F45BC0FC013296A590B490462F50E0D0
:10261000431B510937E0349FB001359F700D1124E1
:10262000A60EB71EF501329634913196E49133230C
:1026300011F0E1110DC0F5013496E4912C898C85DF
:102640009D85E29F800D911D11249D878C8735C04B
:10265000F501359644915E89552311F16C89E32F7C
:10266000F0E0E40FF11D47FDFA956E9FD0016F9FDA
:10267000B00D11244C855D854A0F5B1FE885F985F7
:10268000E417F5076CF41D861C86FC013696E49170
:102690008E859F856E9F800D911D11249F878E874B
:1026A000EA88FB88088919894E855F856C857D8558
:1026B000CC88CE010E947D10BECF81E090E0DF91FA
:1026C000CF911F910F91FF90EF90CF90BF90AF905F
:1026D00008956F927F928F929F92AF92BF92CF9206
:1026E000DF92EF92FF920F931F93CF93DF93EC0152
:1026F0004B015A0169013801E881F9810284F385AF
:10270000E02D0995E881F9810288F389E02D8701A0
:102710009601A501B401CE010995E881F981A501D1
:10272000460D571D415051090288F389E02D96014D
:10273000B401CE010995E881F9810088F189E02D85
:102740009301A501B401CE010995E881F981C80C76
:10275000D91CB601615071090088F189E02D9301FF
:10276000A501CE010995E881F9810688F789E02D58
:10277000CE01DF91CF911F910F91FF90EF90DF90ED
:10278000CF90BF90AF909F908F907F906F90099463
:10279000CF92DF92EF92FF920F931F93CF93DF932D
:1027A00000D000D000D0CDB7DEB76C01DC01ED91D8
:1027B000FC916217730789F4041715072CF4942F02
:1027C000852FA801092F182F041B150B98012F5FC7
:1027D0003F4F048CF58DE02D12C04017510709F5CD
:1027E000261737072CF4962F872FB901292F382F5A
:1027F000261B370B2F5F3F4F068CF78DE02D87018F
:10280000C601099526960FB6F894DEBF0FBECDBF60
:10281000DF91CF911F910F91FF90EF90DF90CF90BC
:1028200008950284F385E02D2D833E834B835C83E2
:1028300069837A830995D601ED91FC910488F58925
:10284000E02D2D813E814B815C8169817A81C601B9
:102850000995D601ED91FC910688F789E02DC60116
:1028600026960FB6F894DEBF0FBECDBFDF91CF9195
:102870001F910F91FF90EF90DF90CF900994EF920E
:10288000FF920F931F93DC01ED91FC9111971A9623
:102890000D911C911B9718962D913C91199700A0B2
:1028A000F1A1E02D7B0140E050E060E070E009958F
:1028B0001F910F91FF90EF9008954F925F926F924A
:1028C0007F928F929F92AF92BF92CF92DF92EF92C0
:1028D000FF920F931F93CF93DF9300D0CDB7DEB756
:1028E0006C015A0139014801DC01ED91FC9102842F
:1028F000F385E02D69837A8309956981462E7A8173
:10290000572E640C751CD601ED91FC9146145704AA
:102910006CF40088F189E02D87019401A501B201D2
:10292000C6010995BFEF4B1A5B0AEDCF0688F78900
:10293000E02DC6010F900F90DF91CF911F910F9165
:10294000FF90EF90DF90CF90BF90AF909F908F90CF
:102950007F906F905F904F900994AF92BF92CF920B
:10296000DF92EF92FF920F931F93CF93DF9300D0EC
:1029700000D0CDB7DEB75C016901DC01ED91FC91BF
:102980000284F385E02D4B835C8369837A83099508
:10299000D501ED91FC9169817A819B012C0D3D1D42
:1029A000215031090488F589E02D78014B815C8143
:1029B0008A01C5010995D501ED91FC910688F78939
:1029C000E02DC5010F900F900F900F90DF91CF91E8
:1029D0001F910F91FF90EF90DF90CF90BF90AF903D
:1029E0000994AF92BF92CF92DF92EF92FF920F9332
:1029F0001F93CF93DF9300D000D0CDB7DEB75C013B
:102A00006901DC01ED91FC910284F385E02D4B839B
:102A10005C8369837A830995D501ED91FC914B81A3
:102A20005C81C40ED51EB1E0CB1AD1080488F589AB
:102A3000E02D7801860169817A819B01C5010995A4
:102A4000D501ED91FC910688F789E02DC5010F9025
:102A50000F900F900F90DF91CF911F910F91FF90EA
:102A6000EF90DF90CF90BF90AF9009940895EF92D0
:102A7000FF920F931F93DC01ED91FC9100A0F1A157
:102A8000E02D09951F910F91FF90EF9008950F93FE
:102A90001F93DC01ED91FC91068CF78DE02D0995DB
:102AA0001F910F9108950F931F93DC01ED91FC91FD
:102AB000048CF58DE02D09951F910F910895DC018F
:102AC000ED91FC910084F185E02D099408952F92F9
:102AD0003F924F925F926F927F928F929F92AF92AE
:102AE000BF92CF92DF92EF92FF920F931F93CF93FB
:102AF000DF9300D01F92CDB7DEB74C017B836A8392
:102B00006A01590117019801241B350B37FF03C0D7
:102B1000319521953109C5014A815B81841B950B53
:102B200097FF03C091958195910951E059838217D0
:102B3000930714F019820BC09A2D8B2D5801092F81
:102B4000182F9A818B81DB82CA82C92ED82E8A8166
:102B50009B81A816B9065CF49C2D8D2D6801092F68
:102B6000182F9A818B81BB82AA82A92EB82E2501AB
:102B7000AA81BB814A1A5B0A38016C187D0877FE6E
:102B800003C0719461947108720157FE03C0BFEFD6
:102B9000EB1AFB0AF594E794C016D1061CF00FEF70
:102BA0001FEF1FC001E010E01CC0D401ED91FC91AB
:102BB000B9810484F585E02D9101BB23C1F04A81E0
:102BC0005B81B601C4010995E618F708F7FE04C059
:102BD000C00ED11EE40CF51CEA81FB813196FB830B
:102BE000EA834A815B81A416B506FCF604C0A601FF
:102BF0006A817B81E7CF0F900F900F90DF91CF918B
:102C00001F910F91FF90EF90DF90CF90BF90AF900A
:102C10009F908F907F906F905F904F903F902F90FC
:102C20000895089580E090E008951F920F920FB6E6
:102C30000F9211242F933F934F935F936F937F9342
:102C40008F939F93AF93BF93EF93FF938091B900BE
:102C5000887F803609F49CC068F5883209F45BC02F
:102C600090F4803109F454C038F4882309F4F6C094
:102C7000883009F44DC0F6C0883109F44CC0803268
:102C800009F45DC0EFC0803409F468C048F48033B3
:102C900009F455C0883309F0E5C080934F02D8C0CD
:102CA000803509F44FC0883509F45DC0883409F0D7
:102CB000D9C0D6C0883909F4C7C0A8F4883709F448
:102CC00067C038F4883609F463C0803709F460C0FF
:102CD000C9C0883809F4B8C0803909F45FC08038A9
:102CE00009F0C0C05BC0803B09F486C038F4803A6C
:102CF00009F466C0883A09F47FC0B4C0803C09F486
:102D0000A7C0883C09F4A4C0883B09F48AC0AAC0C3
:102D100080912C0210C090914E0280914D02981724
:102D200070F5E0914E0281E08E0F80934E02F0E04C
:102D3000E35DFD4F80818093BB0085EC86C080936E
:102D40004F028EC0E0914E0281E08E0F80934E02C2
:102D50008091BB00F0E0E35DFD4F808390914E02D7
:102D600080914D026EC0E0914E0281E08E0F809303
:102D70004E028091BB00F0E0E35DFD4F80838091C7
:102D8000500281116DC081E080932B0284EA61C002
:102D900083E0809351021092FF01CFCF8091FF0119
:102DA000803208F051C0E091FF0181E08E0F8093E6
:102DB000FF018091BB00F0E0E152FE4F8083BDCF68
:102DC00085EC8093BC00109251028091FF0180320B
:102DD00030F4E091FF01F0E0E152FE4F108260918B
:102DE000FF0170E0E091DD01F091DE018FED91E0F7
:102DF00009951092FF0136C084E080935102109231
:102E0000DC011092DB01E091D901F091DA01099522
:102E10008091DB01811105C081E08093DB0110927C
:102E2000B901E091DC0181E08E0F8093DC01F0E0DC
:102E3000E754FE4F80818093BB009091DC0180912C
:102E4000DB01981708F479CF85E88093BC000AC0AD
:102E500085EC8093BC001092510204C010924F0286
:102E60000E94AA0FFF91EF91BF91AF919F918F9117
:102E70007F916F915F914F913F912F910F900FBE76
:102E80000F901F901895CF93CFB7F8948091B80109
:102E9000811127C0E2EFFEE18491E4EDFEE194911F
:102EA000E82FF0E0EE0FFF1FEE55F14EA591B49123
:102EB000EC91E92321F461E08AE00E94CE1B61E0FD
:102EC0008AE00E94FE1B8CB580618CBD8CB580644D
:102ED0008CBD61E08DE00E94FE1B61E08BE00E94F2
:102EE000FE1B8091B8018F5F8093B801CFBFCF9157
:102EF000089508958CBD9DBD0895EF92FF920F93A4
:102F00001F93EE24EA94FE2C0CE310E020EF30E057
:102F10004AEF50E060E070E084EC93E00E94091911
:102F200080E090E01F910F91FF90EF900C94D820DB
:102F3000EF92FF920F931F93E090A901F090AA01E6
:102F400006E910E020EF30E04AE550E060E070E094
:102F500084EC93E00E9409191F910F91FF90EF906C
:102F60000895EF92FF920F931F93811120C08091DB
:102F7000A801882321F0E12C98EFF92E04C0EE245B
:102F8000EA9489E3F82E0CE310E020EF30E04AEFFA
:102F900050E060E070E084EC93E00E9409198FEF4C
:102FA0009FEF1F910F91FF90EF900C94D8201F91ED
:102FB0000F91FF90EF900C947D17CF92DF92EF92DC
:102FC000FF920F931F93CF93DF936C017A018B01D4
:102FD000C0E0D0E0CE15DF0589F0D8016D918D01FC
:102FE000D601ED91FC910190F081E02DC60109958B
:102FF000892B11F47E0102C02196ECCFC701DF912D
:10300000CF911F910F91FF90EF90DF90CF90089597
:10301000FC01538D448D252F30E0842F90E0821BDE
:10302000930B541718F081589F4F089501970895F6
:10303000FC01918D828D981761F0828DDF01A80FC0
:10304000B11D5D968C91928D9F5F9F77928F90E0DE
:1030500008958FEF9FEF0895FC01918D828D981751
:1030600031F0828DE80FF11D858D90E008958FEF8E
:103070009FEF0895FC01918D228D892F90E080585B
:103080009F4F821B91098F779927089585E792E0DA
:103090000E943A1821E0892B09F420E0822F08953C
:1030A000FC01848DDF01A80FB11DA356BF4F2C91E9
:1030B000848D90E001968F779927848FA689B789B0
:1030C0002C93A089B1898C9180648C93938D848D8D
:1030D000981306C00288F389E02D80818F7D80835C
:1030E0000895EF92FF920F931F93CF93DF93EC011C
:1030F00081E0888F9B8D8C8D981305C0E889F989B4
:10310000808185FD24C0F62E0B8D10E00F5F1F4FD0
:103110000F771127E02E8C8DE8120CC00FB607FC3C
:10312000FACFE889F989808185FFF5CFCE010E9429
:103130005018F1CF8B8DFE01E80FF11DE356FF4FC4
:10314000F0820B8FEA89FB898081806207C0EE895B
:10315000FF896083E889F98980818064808381E0C8
:1031600090E0DF91CF911F910F91FF90EF90089524
:10317000CF93DF93EC01888D8823C9F0EA89FB891E
:10318000808185FD05C0A889B9898C9186FD0FC015
:103190000FB607FCF5CF808185FFF2CFA889B989EA
:1031A0008C9185FFEDCFCE010E945018E7CFDF91C3
:1031B000CF91089580E090E0892B29F00E94461875
:1031C00081110C94000008953FB7F8948091050296
:1031D00090910602A0910702B091080226B5A89B23
:1031E00005C02F3F19F00196A11DB11D3FBFBA2F99
:1031F000A92F982F8827820F911DA11DB11DBC01F9
:10320000CD0142E0660F771F881F991F4A95D1F7BD
:103210000895CF92DF92EF92FF920F931F93CF9377
:10322000DF9300D000D000D0CDB7DEB76C01DC0159
:10323000ED91FC910284F385E02D2D833E834B8339
:103240005C8369837A830995D601ED91FC910684AC
:10325000F785E02D2D813E814B815C8169817A81EA
:10326000C6010995D601ED91FC910688F789E02DFC
:10327000C60126960FB6F894DEBF0FBECDBFDF9114
:10328000CF911F910F91FF90EF90DF90CF90099415
:10329000EF92FF920F931F93CF93DF9300D000D054
:1032A00000D0CDB7DEB77C01DC01ED91FC9102844A
:1032B000F385E02D2D833E834B835C8369837A8382
:1032C0000995D701ED91FC910288F389E02D2D81BC
:1032D0003E814B815C8169817A81C7010995D70163
:1032E000ED91FC910688F789E02DC70126960FB66F
:1032F000F894DEBF0FBECDBFDF91CF911F910F912C
:10330000FF90EF900994EF92FF920F931F93CF934A
:10331000DF9300D000D000D0CDB7DEB77C01DC0158
:10332000ED91FC910284F385E02D2D833E834B8348
:103330005C8369837A830995D701ED91FC910088BC
:10334000F189E02D2D813E814B815C8169817A81FB
:10335000C7010995D701ED91FC910688F789E02D09
:10336000C70126960FB6F894DEBF0FBECDBFDF9122
:10337000CF911F910F91FF90EF9009940F931F939E
:10338000CF93DF9300D000D000D0CDB7DEB78C0153
:10339000DC01ED91FC910284F385E02D2D833E83C9
:1033A0004B835C8369837A830995D801ED91FC9105
:1033B0000484F585E02D2D813E814B815C816981FE
:1033C0007A81C8010995D801ED91FC910688F789A9
:1033D000E02DC80126960FB6F894DEBF0FBECDBF14
:1033E000DF91CF911F910F910994EF92FF920F936C
:1033F0001F93DC01ED91FC910684F785E02D7801A7
:1034000001E010E009951F910F91FF90EF90089552
:10341000EF92FF920F931F93DC01ED91FC910684D4
:10342000F785E02D7801890121E030E009951F91B1
:103430000F91FF90EF9008950E94EF2D0F931F932F
:10344000CF93DF93EC0188819981009729F02A813D
:103450003B812617370788F48B016F5F7F4F0E94EF
:10346000252D009761F0998388831B830A832C8123
:103470003D81232B11F4FC01108281E001C080E02A
:10348000DF91CF911F910F910895FC01A4A5B5A5DF
:103490009C9181A9892B8C9381A187FD0C9479172C
:1034A00008950F931F93CF93DF93EC0189A187FFBA
:1034B0001EC00A8D1B8D2C8D3D8D90E040E052E1A9
:1034C0006AE770E0041715072607370740F476957A
:1034D0006795579547959F5F9630A1F797E081E0F4
:1034E0009827892F806A869591700E947A17ECA59B
:1034F000FDA5908189A9809589238083DF91CF9153
:103500001F910F910895FC01248135816217730783
:1035100048F480819181009729F0FC01E60FF71FA4
:103520008081089580E00895EF92FF920F931F939A
:10353000CF93DF93FC01248135816115710511F46E
:1035400080E019C041155105A9F07B01EC018A0109
:10355000020F131FB8010E941E1A882389F32881C5
:1035600039818C819D81B701820F931F0E94062EA5
:103570001D830C8381E0DF91CF911F910F91FF900C
:10358000EF900895CF93DF93EC01888199810097A4
:1035900011F00E948D2C198218821D821C821B82C0
:1035A0001A82DF91CF910895EF92FF920F931F93AC
:1035B000CF93DF93EC017B018A01BA010E941E1AAE
:1035C000811104C0CE010E94C21A07C01D830C8362
:1035D000B701888199810E94062ECE01DF91CF919B
:1035E0001F910F91FF90EF900895CF93DF93EC011F
:1035F0006115710559F0FB0101900020E9F7319741
:10360000AF01461B570B0E94D41A02C00E94C21A77
:10361000CE01DF91CF910895CF93DF93EC01FB01B1
:103620008617970761F0608171816115710529F036
:10363000448155810E94D41A02C00E94C21ACE0150
:10364000DF91CF910895FC011182108213821282C2
:10365000158214826115710551F0FB010190002063
:10366000E9F73197AF01461B570B0C94D41A089514
:103670006115710579F0FB0101900020E9F73197A0
:10368000AF01461B570BDC01ED91FC910280F381E9
:10369000E02D099480E090E008951F920F920FB6FC
:1036A0000F9211242F933F934F935F936F937F93C8
:1036B0008F939F93AF93BF93EF93FF9385E792E030
:1036C0000E945018FF91EF91BF91AF919F918F9100
:1036D0007F916F915F914F913F912F910F900FBE0E
:1036E0000F901F9018951F920F920FB60F921124F2
:1036F0002F938F939F93EF93FF93E0918502F09127
:1037000086028081E0918B02F0918C0282FD12C0D2
:10371000908180918E028F5F8F7720918F02821728
:1037200051F0E0918E02F0E0EB58FD4F958F8093C1
:103730008E0201C08081FF91EF919F918F912F9117
:103740000F900FBE0F901F901895833081F028F4D2
:10375000813099F08230A1F008958730A9F0883047
:10376000B9F08430D1F4809180008F7D03C08091C6
:1037700080008F7780938000089584B58F7702C092
:1037800084B58F7D84BD08958091B0008F7703C08C
:103790008091B0008F7D8093B00008951F93CF93E8
:1037A000DF93282F30E0F901EA54F14E8491F901BA
:1037B000E653F14ED491F901E851F14EC491CC2376
:1037C000C9F0162F81110E94A51BEC2FF0E0EE0F1F
:1037D000FF1FE252F14EA591B4918FB7F8941111E9
:1037E00005C09C91ED2FE095E92302C0EC91ED2BF3
:1037F000EC938FBFDF91CF911F910895CF93DF930B
:1038000090E0FC01E653F14E2491FC01E851F14EA9
:103810008491882361F190E0880F991FFC01EE5597
:10382000F14EC591D491FC01E252F14EA591B491B3
:10383000611109C09FB7F8948881209582238883FD
:10384000EC912E230BC0623061F49FB7F89438815D
:10385000822F809583238883EC912E2B2C939FBFFE
:1038600006C08FB7F894E8812E2B28838FBFDF9195
:10387000CF9108958F929F92AF92BF92CF92DF9295
:10388000EF92FF926B017C010E94E4184B015C01F6
:10389000C114D104E104F104F1F00E94E418DC0148
:1038A000CB0188199909AA09BB09883E9340A10553
:1038B000B10570F321E0C21AD108E108F10888EEE1
:1038C000880E83E0981EA11CB11CC114D104E10430
:1038D000F10419F7DDCFFF90EF90DF90CF90BF900C
:1038E000AF909F908F9008951F920F920FB60F92F6
:1038F00011242F933F938F939F93AF93BF93809106
:10390000010290910202A0910302B0910402309151
:10391000000223E0230F2D3720F40196A11DB11DD5
:1039200005C026E8230F0296A11DB11D20930002B9
:103930008093010290930202A0930302B0930402C9
:103940008091050290910602A0910702B0910802B1
:103950000196A11DB11D8093050290930602A093CC
:103960000702B0930802BF91AF919F918F913F9151
:103970002F910F900FBE0F901F901895FC0181A101
:1039800087FF05C06EBD0DB407FEFDCF089528E08A
:1039900030E090E8A4A1B5A186A5492F462319F0EF
:1039A0004C91842B03C04C91809584238C93A0A5CB
:1039B000B1A54C9180A9809584238C93A0A5B1A535
:1039C0004C9180A9842B8C9396952150310911F745
:1039D0000895CF93DF93EC01EAA5FBA590818AA916
:1039E000809589238083CE010E94BE1CEAA5FBA599
:1039F00090818AA9892B8083DF91CF9108958F923E
:103A00009F92AF92BF92CF92DF92EF92FF920F936D
:103A10001F93CF93DF93EC01490181E0881A91084D
:103A2000860E971EC401A0E0B0E04B01A12CB12C82
:103A3000540199248824882A992AAA2ABB2A680131
:103A400081E0C81AD108C40ED51EC601A0E0B0E0BE
:103A50006A01E12CF12C7601DD24CC24C82AD92A74
:103A6000EA2AFB2A6AE2CE010E94E91C29A16B2DF9
:103A700077278827992727FF18C06EBD0DB407FE4A
:103A8000FDCFC501AA27BB278EBD0DB407FEFDCF14
:103A9000BB27AB2D9A2D892D8EBD0DB407FEFDCF12
:103AA0008EBC0DB407FEFDCF14C0CE010E94BE1C1B
:103AB000B50188279927CE010E94BE1C99278B2D1E
:103AC0007A2D692DCE010E94BE1C682DCE010E9468
:103AD000BE1C6BE2CE010E94E91C29A16F2D772745
:103AE0008827992727FF18C06EBD0DB407FEFDCFAC
:103AF000C701AA27BB278EBD0DB407FEFDCFBB278C
:103B0000AF2D9E2D8D2D8EBD0DB407FEFDCFCEBCED
:103B10000DB407FEFDCF14C0CE010E94BE1CB7013C
:103B200088279927CE010E94BE1C99278F2D7E2DB4
:103B30006D2DCE010E94BE1C6C2DCE010E94BE1CBC
:103B40006CE2CE01DF91CF911F910F91FF90EF902A
:103B5000DF90CF90BF90AF909F908F900C94E91C16
:103B60004F925F926F927F928F929F92AF92BF928D
:103B7000CF92DF92EF92FF920F931F93CF93DF9339
:103B80005C01FB01E9014701DC0118962D913C9194
:103B90001997621773070CF063C01A968D919C9168
:103BA0001B97481759070CF05BC06B01CC0EDD1E4C
:103BB000D60111977A01E00EF11EB701615071092B
:103BC000B7FD4EC077FD4CC0F7FF03C0E601E0E053
:103BD000F0E057FF03C0870140E050E0A217B307B1
:103BE0001CF0E901CE1BDF0B681779071CF08C0174
:103BF000041B150B9E01D8010E94C12B6B017C0197
:103C0000BF01C5010E94FF1C26013701F50181A1FA
:103C100087FF13C0411451046104710409F19EBC73
:103C20000DB407FEFDCF8EBC0DB407FEFDCFF1E055
:103C30004F1A510861087108EDCF41145104610415
:103C4000710471F0692DC5010E94BE1C682DC5016B
:103C50000E94BE1C81E0481A510861087108EDCF2E
:103C6000DF91CF911F910F91FF90EF90DF90CF9058
:103C7000BF90AF909F908F907F906F905F904F908C
:103C80000895EF92FF920F931F93CF93DF93EC0170
:103C9000CB0177FD30C068857985861797075CF57D
:103CA00057FD29C06A857B854617570724F5E32E03
:103CB000F22EBC0101E010E021E030E0CE010E94D4
:103CC000FF1C89A187FF09C0EEBC0DB407FEFDCF24
:103CD000FEBC0DB407FEFDCF0EC06E2DCE010E94BE
:103CE000BE1C6F2DCE01DF91CF911F910F91FF90E0
:103CF000EF900C94BE1CDF91CF911F910F91FF901C
:103D0000EF9008950F931F93CF93DF931F92CDB73A
:103D1000DEB78C01DC01ED91FC910284F385E02D8E
:103D2000698309956981611102C060E201C061E2A5
:103D3000C8010E94E91CD801ED91FC910688F78921
:103D4000E02DC8010F90DF91CF911F910F91099441
:103D50001F93CF93DF93EC0163706D8B6230C1F0E2
:103D6000633001F1613051F080EF90E099878887EE
:103D700080E491E09B878A8718E41DC080E491E08D
:103D80009987888780EF90E09B878A8718E213C025
:103D900080EF90E09987888780E491E09B878A870D
:103DA00018E809C080E491E09987888780EF90E067
:103DB0009B878A8718EEE881F9810284F385E02DDC
:103DC000CE01099566E3CE010E94E91C612FCE0168
:103DD0000E94BE1CE881F9810688F789E02DCE019A
:103DE000DF91CF911F910994382F20917402909107
:103DF0000A04213208F049C0809151028111FCCFA0
:103E000042E040935102309350023FEF30934F0213
:103E100010924E0220934D02A4E5B2E04DE252E032
:103E2000FA013E2F341B321718F43D913193F9CF2C
:103E300010922C0220912C02990F922B90932C021D
:103E400090912B02913061F410922B0290912C02F0
:103E50009093BB009091BC0093FDF8CF95EC01C00E
:103E600095EE9093BC00909151029230E1F39091C5
:103E70004F029F3F79F080914F02803241F0809154
:103E80004F02803331F084E005C081E003C082E05E
:103E900001C083E0109253021092740210925202F9
:103EA0000895EF92FF920F931F93CF93DF93F090BB
:103EB000FA039FEFF91207C08EBD00000DB407FE94
:103EC000FDCF8EB51DC0E090F80307E010E0C82FCD
:103ED000D0E0BE01002E02C0759567950A94E2F706
:103EE000617077278E2D0E94CE1B61E08F2D0E947E
:103EF000CE1B60E08F2D0E94CE1B0150110948F7A8
:103F0000DF91CF911F910F91FF90EF900895CF9384
:103F1000DF93D82FC62F8091F7038F3FD1F4809184
:103F2000FB0391E09093520280930A041092530293
:103F3000109274026D2F84E993E00E9438106C2F68
:103F400084E993E00E94381081E0DF91CF910C94D6
:103F5000F41E8091FA038F3F31F480919203909187
:103F600093030E947A1760E08091F7030E94CE1BB2
:103F70008D2F0E94511F8C2F0E94511F61E0809154
:103F8000F7030E94CE1B8091FA038F3F21F4DF914B
:103F9000CF910C947917DF91CF9108958F929F92D2
:103FA000AF92BF92CF92DF92EF92FF920F931F9347
:103FB000CF93DF93C82F8091F7038F3F09F06DC037
:103FC0008091FB03D1E0D093520280930A041092B7
:103FD0005302109274026C2F84E993E00E9438100F
:103FE00081E00E94F41E8091FB03D09352028093E3
:103FF0000A0410925302109274029091510291118E
:10400000FCCF91E090935102909350022FEF2093B8
:104010004F0210924E0210924D0290932C029091FA
:104020002C02880F892B80932C0280912B028130E7
:1040300061F410922B0280912C028093BB0080913E
:10404000BC0083FDF8CF85EC01C085EE8093BC00F9
:10405000809151028130E1F380914E02811103C0C1
:1040600080914E0201C081E0ADE2B2E02BE032E08F
:10407000F9019E2F921B981718F49D919193F9CFF7
:1040800010920A028093090284E993E00E94EC0FE7
:10409000B82E81E00E94F41E6BC08091FA038F3F1E
:1040A00031F480919203909193030E947A1760E01B
:1040B0008091F7030E94CE1B8C2F80680E94511FB5
:1040C00080E00E94511FA090FA038FEFA81207C052
:1040D0001EBC00000DB407FEFDCFBEB43EC0C091B3
:1040E000F90307E010E0B12CD0E0FE01EA54F14EF4
:1040F0007F01CE018653914E6C01C851D14E61E0D3
:104100008A2D0E94CE1BF7018491F6018490FE0156
:104110009490992099F081110E94A51B292D30E0DF
:10412000220F331F2455314EF901A591B4918C9182
:10413000882231E009F430E0832F02C080E090E073
:10414000002E01C0880F0A94EAF7B82A60E08A2D91
:104150000E94CE1B0150110990F661E08091F70397
:104160000E94CE1B8091FA038F3F11F40E947917B1
:104170008B2DDF91CF911F910F91FF90EF90DF90EA
:10418000CF90BF90AF909F908F900895CF93DF9383
:1041900080E00E94CE1FC82FD0E0DC2FCC2781E02A
:1041A0000E94CE1F9E01282BC901DF91CF91089557
:1041B0004F925F926F927F92AF92BF92CF92DF92B7
:1041C000EF92FF920F931F93CF93DF935C01E091E7
:1041D000C403F091C5030284F385E02D84EC93E0E1
:1041E0000995C2E0D1E0C12CD12C760196E1492E8F
:1041F000512C612C712CC701B601A30192010E94C0
:10420000A22B83E2C80ED11CE11CF11CE091C40377
:10421000F091C5032F5F3F4F0288F389E02D8501A0
:10422000AE0169E670E084EC93E009952196C8310F
:1042300081E0D80701F7C12CD12C760186E1482E08
:10424000512C612C712CC701B601A30192010E946F
:10425000A22B83E2C81AD108E108F108E091C40357
:10426000F091C5032C5D3F4F0288F389E02D850155
:10427000AE0169E670E084EC93E009952196CF32B7
:1042800081E0D80701F7E091C403F091C5030688E7
:10429000F789E02D84EC93E0DF91CF911F910F918E
:1042A000FF90EF90DF90CF90BF90AF907F906F9096
:1042B0005F904F900994FC018091BC039091BD03E5
:1042C000892B21F421E0309749F413C08091B80381
:1042D0009091B903309731F421E0FC01808188236B
:1042E00041F006C0BF010E94FD2D21E0892B09F09D
:1042F00020E0822F08954091BC035091BD034115E9
:104300005105D1F08091B8039091B9034150510902
:104310005093BD034093BC03BC016F5F7F4F0E946D
:104320000D2EE091B803F091B9038091BC039091F8
:10433000BD03E80FF91F10820895FC0144815581E7
:104340006081718184EC93E00C94DD17CF93DF934F
:1043500000D0CDB7DEB7789484B5826084BD84B5D3
:10436000816084BD85B5826085BD85B5816085BD70
:1043700080916E00816080936E0010928100809128
:1043800081008260809381008091810081608093B0
:104390008100809180008160809380008091B100D5
:1043A00084608093B1008091B00081608093B00000
:1043B00080917A00846080937A0080917A00826094
:1043C00080937A0080917A00816080937A00809156
:1043D0007A00806880937A001092C100E091850293
:1043E000F091860282E08083E0918102F091820266
:1043F0001082E0918302F091840287E6808310921C
:104400008D02E0918902F0918A0286E08083E0913A
:104410008702F0918802808180618083E091870229
:10442000F0918802808188608083E0918702F0911A
:104430008802808180688083E0918702F091880201
:1044400080818F7D808380E092E1AAE7B0E0809355
:10445000DE039093DF03A093E003B093E10361E0F8
:104460008091E3030E94FE1B60E08091E3030E94C1
:10447000CE1B61E08091E2030E94FE1B61E080910F
:10448000E2030E94CE1B8091E50387FD1BC061E023
:104490008091E6030E94FE1B60E08091E6030E948B
:1044A000CE1B61E08091E5030E94FE1B61E08091DC
:1044B000E5030E94CE1B8091E70387FD03C060E007
:1044C0000E94FE1B8091E50387FD0E9443178091A7
:1044D000E40387FD24C061E00E94FE1B61E080913F
:1044E000E4030E94CE1B64E670E080E090E00E944E
:1044F0003A1C60E08091E4030E94CE1B64E670E009
:1045000080E090E00E943A1C61E08091E4030E9408
:10451000CE1B68EC70E080E090E00E943A1C84ECD6
:1045200093E00E94511A6FEE84EC93E00E94E91C24
:1045300063E084EC93E00E94BE1C60E884EC93E0AE
:104540000E94BE1C62E084EC93E00E94BE1C6FECF3
:1045500084EC93E00E94E91C60E084EC93E00E940C
:10456000BE1C61EC84EC93E00E94BE1C60E384EC12
:1045700093E00E94BE1C6DEE84EC93E00E94E91C67
:1045800064E684EC93E00E94BE1C63E084EC93E05C
:104590000E94BE1C62E184EC93E00E94BE1C61E8B4
:1045A00084EC93E00E94BE1C68EE84EC93E00E94D1
:1045B000E91C65E884EC93E00E94BE1C60E084EC9A
:1045C00093E00E94BE1C68E784EC93E00E94BE1C4E
:1045D0006BEC84EC93E00E94E91C69E384EC93E0CB
:1045E0000E94BE1C6CE284EC93E00E94BE1C60E062
:1045F00084EC93E00E94BE1C64E384EC93E00E9490
:10460000BE1C62E084EC93E00E94BE1C67EF84EC69
:1046100093E00E94E91C60E284EC93E00E94BE1CDF
:104620006AEE84EC93E00E94E91C60E084EC93E085
:104630000E94BE1C60E084EC93E00E94BE1C60EC13
:1046400084EC93E00E94E91C63E284EC93E00E9416
:10465000BE1C61EC84EC93E00E94E91C60E184ECF8
:1046600093E00E94BE1C65EC84EC93E00E94E91C80
:104670006EE384EC93E00E94BE1C68E284EC93E05D
:104680000E94BE1C67EC84EC93E00E94E91C66E883
:1046900084EC93E00E94BE1C66E384EC93E00E94ED
:1046A000E91C68E484EC93E00E94BE1C67E384ECA0
:1046B00093E00E94E91C8091E50387FF09C01EBCBE
:1046C0000DB407FEFDCF1EBC0DB407FEFDCF0AC022
:1046D00060E084EC93E00E94BE1C60E084EC93E018
:1046E0000E94BE1C6AE384EC93E00E94E91C65E52D
:1046F00084EC93E00E94BE1C61EB84EC93E00E948A
:10470000E91C60E084EC93E00E94BE1C68E184EC4C
:1047100093E00E94BE1C66EB84EC93E00E94E91CCF
:1047200068E084EC93E00E94BE1C62E884EC93E0B5
:104730000E94BE1C67E284EC93E00E94BE1C62EF04
:1047400084EC93E00E94E91C60E084EC93E00E941A
:10475000BE1C66E284EC93E00E94E91C61E084ECFC
:1047600093E00E94BE1C60EE84EC93E00E94E91C82
:104770006FE084EC93E00E94BE1C61E384EC93E064
:104780000E94BE1C6BE284EC93E00E94BE1C6CE0B5
:1047900084EC93E00E94BE1C6EE084EC93E00E94E7
:1047A000BE1C68E084EC93E00E94BE1C6EE484ECC6
:1047B00093E00E94BE1C61EF84EC93E00E94BE1C5B
:1047C00067E384EC93E00E94BE1C67E084EC93E016
:1047D0000E94BE1C60E184EC93E00E94BE1C63E07A
:1047E00084EC93E00E94BE1C6EE084EC93E00E9497
:1047F000BE1C69E084EC93E00E94BE1C60E084EC87
:1048000093E00E94BE1C61EE84EC93E00E94E91CE0
:1048100060E084EC93E00E94BE1C6EE084EC93E0C8
:104820000E94BE1C64E184EC93E00E94BE1C63E025
:1048300084EC93E00E94BE1C61E184EC93E00E9452
:10484000BE1C67E084EC93E00E94BE1C61E384EC34
:1048500093E00E94BE1C61EC84EC93E00E94BE1CBD
:1048600068E484EC93E00E94BE1C68E084EC93E072
:104870000E94BE1C6FE084EC93E00E94BE1C6CE0C2
:1048800084EC93E00E94BE1C61E384EC93E00E9400
:10489000BE1C66E384EC93E00E94BE1C6FE084ECD7
:1048A00093E00E94BE1C61E184EC93E00E94E91C4D
:1048B00068E770E080E090E00E943A1C69E284ECD6
:1048C00093E00E94E91C68E770E080E090E00E94BD
:1048D0003A1C84EC93E00E94451A80EF90E090939C
:1048E000CD038093CC0380E491E09093CF03809339
:1048F000CE039091F7039F3F59F18091FA0361E055
:104900008F3FA1F4892F0E94FE1B61E08091F70385
:104910000E94CE1B0E94431781E580939203109260
:1049200093031092FD031092FC033CC00E94FE1BF7
:1049300061E08091F7030E94FE1B61E08091F80323
:104940000E94FE1B60E08091F9030E94FE1B2AC0BA
:1049500010920A02109209021092530210927402ED
:104960001092510281E08093500210922B0261E07C
:1049700082E10E94CE1B61E083E10E94CE1B809108
:10498000B9008E7F8093B9008091B9008D7F8093AC
:10499000B90088E48093B80085E48093BC0081E48A
:1049A0008093FB030E94C6208131984061F462E04D
:1049B00083E00E94871F6AE070E080E090E00E9440
:1049C0003A1C10E01BC08091F7038F3F09F450C0E0
:1049D0008091FA038F3F09F04BC085E580939203E5
:1049E0001092930384E090E09093FD038093FC0386
:1049F0000E94C62081319840D9F5D9CF812F0E94DD
:104A0000CE1F1F5F1134D1F760E084E00E94871F42
:104A100061E080E40E94871F61E08AE00E94871FB6
:104A200060E680E20E94871F62E081E20E94871FA9
:104A300064EA81E40E94871F66E086E50E94871F82
:104A400061E08AE40E94871F61E08BE40E94871F77
:104A500060E08BE40E94871F61E088E50E94871F69
:104A60006FEF8BE00E94871F65E089E00E94871F3F
:104A700060E070E084EC93E00E943F1460E084EC1E
:104A800093E00E94A81E8091DC039091DD03892BA6
:104A900049F48091D2039091D30306969093D30367
:104AA0008093D2038BE999E19093DD038093DC033B
:104AB000FEE1AF2EB12CDD24D394AFE72A2E312CAA
:104AC000BEE64B2E512C18E6612E712C80E40E941C
:104AD000CE1F2091B6013091B70187FF3AC0232B3A
:104AE00011F40E947D170091B6011091B7010F5F7C
:104AF0001F4F1093B7010093B6016EE170E080E0A4
:104B000090E00E943A1C0436110501F7B092D103DF
:104B1000A092D00387E390E09093D3038093D203D5
:104B2000D092D803E090B401F090B5010EE110E00E
:104B30002DEC30E043E250E06EE170E084EC93E075
:104B40000E9409196CE571E084EC93E00E94381B27
:104B5000BDCF1216130694F585E792E00E943A182D
:104B6000892B29F085E792E00E941818F5CF65E6B9
:104B700071E088EB93E00E94F51A65E671E08EEB38
:104B800093E00E94F51A1092AF0180E00E94B117E5
:104B90008091B6019091B701843691051CF06CE5C7
:104BA00071E002C066E671E085E792E00E94381B82
:104BB00063E671E085E792E00E94381B1092B7012E
:104BC0001092B6018091B30181111AC11092DA03DB
:104BD00080910101882361F18FEF9FEF9093D703BC
:104BE0008093D6039093D5038093D403B092D103DE
:104BF000A092D0038BE190E09093D3038093D203F3
:104C0000D092D803E090B401F090B5010EE110E02D
:104C100022ED30E046E050E06EE170E084EC93E09D
:104C20000E94091980EA93E00E949D2110920101DF
:104C300080910201882361F18FEF9FEF9093D7035A
:104C40008093D6039093D5038093D403B092D1037D
:104C5000A092D00389E390E09093D3038093D20392
:104C6000D092D803E090B401F090B5010EE110E0CD
:104C700022ED30E043E250E06EE170E084EC93E03E
:104C80000E94091986EA93E00E949D211092020178
:104C90008091B201882309F4B3C080910301882375
:104CA00009F4AEC088E08093D8031092B10110924D
:104CB000B001E090B603F090B703E114F10409F0FD
:104CC0005CC06CEA73E082EB93E00E940C1B4091A5
:104CD000B0035091B103E091B001F091B101E090C7
:104CE000A901F090AA01A0E3A49F9001A59F300D17
:104CF00011242059310963E070E06E1B7F0BA69FE1
:104D0000C001A79F900D1124280F391FAE9FB0013D
:104D1000AF9F700D1124E8E1CE2EC49EC001C59E48
:104D2000900D1124681B790B61587F4F00E410E04F
:104D300046E650E084EC93E00E9409192091B0030C
:104D40003091B103C29EC001C39E900D1124F101A8
:104D5000E81BF90BF093D103E093D0035092D303F7
:104D60004092D2038091DC039091DD03892B49F1BD
:104D70007092D3036092D20324C08090B0039090CD
:104D8000B1030091B0011091B101B80182EB93E041
:104D90000E94831AC82EB8018CEA93E00E94831AFD
:104DA000C8128FCF0815190508F08BCF8E149F04F9
:104DB00009F087CF0F5F1F4F1093B1010093B0012F
:104DC000E0CF1092DD031092DC038CEA93E00E94A6
:104DD0009D218091DC039091DD03892B49F4809122
:104DE000D2039091D30306969093D3038093D2037A
:104DF0002BE939E13093DD032093DC0310920301AA
:104E000085E792E00E943A18892B29F185E792E024
:104E10000E943A182091AF01892B19F0222309F43E
:104E200035C1222381F060E070E088EB93E00E94BE
:104E3000831A823099F40E947B218091BC03909167
:104E4000BD03892B91F465E671E088EB93E00E9445
:104E5000F51A1092AF010E94DA1838CE65E671E0BB
:104E600088EB93E00E94F51AE8CF60E070E088EBF1
:104E700093E00E94831A082F880F110B0053110929
:104E80001093AE010093AD010E947B210930110502
:104E900009F453C08091B3018111D5CF2091BC0397
:104EA0003091BD0386E0809FF001819FF00D1124B9
:104EB000E056FC4F848195812817390761F5809170
:104EC000B8039091B903009729F060817181611551
:104ED0007105E9F446E0409FF001419FF00D112477
:104EE000E056FC4F0190F081E02D309741F0232BEC
:104EF000B9F0808190E09195819591090AC0009761
:104F000079F0232B69F0FC01808190E002C00E94BF
:104F1000FD2D892B29F0F801EF5FFE4F21E0208362
:104F200026E0209FC001219F900D112468EB73E0C3
:104F300080569C4F0E940C1B86CF8BE691E00E940E
:104F40005B21882399F0D0920001E090A901F090B4
:104F5000AA010CE310E020EF30E04AEF50E060E0FF
:104F600070E084EC93E00E9409196DCF8DE691E02A
:104F70000E945B21882359F080910001882309F465
:104F800062CF1092000180E00E94B1175CCF8FE6E3
:104F900091E00E945B21882369F0D092B2010E94C7
:104FA0009817D092030161E771E08CEA93E00E94C8
:104FB000F51A49CF85E791E00E945B21882319F01B
:104FC0001092B20196C087E791E00E945B2188238E
:104FD00029F01092B7011092B60135CF89E791E020
:104FE0000E945B21882339F08091AC0181112BCF85
:104FF000D092AC0142C08BE791E00E945B218823F4
:1050000029F0D092AC010E94981737C081E691E058
:105010000E945B2181116BC08DE791E00E945B21B2
:10502000811165C069C08FE791E00E945B218823F0
:1050300009F46EC01092A8010E949817E090A9018F
:10504000F090AA01F092B501E092B40106E410E0FC
:1050500020EF30E040E050E060E070E084EC93E06E
:105060000E94091980910001811102C00E94B117AC
:105070008091AC01882309F4E6CE4FEF57E063E955
:1050800072E18AE590E00E94C52ADDCE85E792E0D4
:105090000E941818823091F42091C2033091C3030A
:1050A000232BF1F489831A8241E050E0BE016F5F47
:1050B0007F4F8EEB93E00E94941AA8CE8A3091F72E
:1050C00040E050E06AE071E08EEB93E00E94941AB9
:1050D000D092AF016EEB73E088EB93E00E940C1B63
:1050E00065E671E08EEB93E00E94F51A8FCE109288
:1050F000AC010E949817A7CE85E891E00E945B2141
:10510000882309F490CFD092A8010E9498173BC041
:1051100081E891E00E945B21882319F0D092B301CD
:1051200092CE83E891E00E945B21882329F0809150
:10513000AB01882309F449C087E891E00E945B2114
:10514000882309F48AC08091AB01882309F485C0C3
:105150001092AB011092AA011092A9011092B50110
:105160001092B40160E070E084EC93E00E943F1480
:1051700080910001811103C080E00E94B1178091ED
:10518000A8018823E9F040EE5FEF6BE87BE089E659
:1051900090E00E94C52A80E098EF9093B50180933B
:1051A000B401E12C88EFF82E06E410E020EF30E0A7
:1051B00040E050E060E070E084EC93E00E94091968
:1051C000D0920101D09202013ECED092AB0187E095
:1051D00090E09093AA018093A9019093B5018093E8
:1051E000B40167E070E084EC93E00E943F1480918A
:1051F0000001811103C080E00E94B1178091A801D5
:105200008823E9F040EE5FEF6BE87BE089E690E011
:105210000E94C52A80E098EF9093B5018093B40175
:10522000E12C98EFF92E06E410E020EF30E040E0AA
:1052300050E060E070E084EC93E00E9409198091F6
:10524000AC01882309F4BCCF4FEF57E063E972E16A
:105250008AE590E00E94C52AB3CF89E891E00E94D8
:105260005B21882309F4EFCD1092B301ECCDCF93ED
:10527000DF93C8EBD3E02697888199810E948D2C1B
:1052800083E0C03AD807B9F78091B8039091B90389
:105290000E948D2C8091BE039091BF03DF91CF912E
:1052A0000C948D2CCF93DF93CDB7DEB768970FB6F4
:1052B000F894DEBF0FBECDBF109278021092770235
:1052C00088EE93E0A0E0B0E08093790290937A02B8
:1052D000A0937B02B0937C0220E131E03093760210
:1052E0002093750225EC30E03093820220938102F6
:1052F00024EC30E0309384022093830220EC30E0F1
:10530000309386022093850221EC30E030938802AE
:105310002093870222EC30E030938A0220938902A6
:1053200026EC30E030938C0220938B0210928E0298
:1053300010928F02109290021092910220E5209319
:105340009203109293031092970310929603809306
:10535000980390939903A0939A03B0939B0382E2DE
:1053600091E0909395038093940310920704109218
:105370000604109205041092040410920104109285
:1053800000041092FF031092FE0388E08093F7035D
:105390008FEF8093FA038093F9038093F8031092C0
:1053A000C7031092C60340EF50E05093C9034093E7
:1053B000C80320E431E03093CB032093CA03509319
:1053C000CD034093CC033093CF032093CE031092B0
:1053D000D9031092D1031092D0031092D3031092EC
:1053E000D20391E09093D8032FEF3FEF3093D70390
:1053F0002093D6033093D5032093D4039093DA03FC
:105400001092DB031092DD031092DC0324E331E001
:105410003093C5032093C4039AE09093E20399E08C
:105420009093E3038093E4038093E5038093E60382
:105430008093E7031092DE031092DF031092E003E3
:105440001092E103E2EFFEE1E491F0E0EE0FFF1FC6
:10545000E252F14E859194919093F1038093F00381
:10546000E4EDFEE1E491E093F503E1EFFEE1E49188
:10547000F0E0EE0FFF1FE252F14E85919491909370
:10548000EF038093EE03E3EDFEE1E491E093F60396
:105490001092ED031092EC031092F4031092E903C2
:1054A0001092E8031092F2031092EB031092EA03B9
:1054B0001092F30365E671E08EEB93E00E94231BEC
:1054C00065E671E088EB93E00E94231B6BE871E0D6
:1054D00080EA93E00E94231B1C8A1B8A1E8A1D8A75
:1054E000188E1F8A4AE0BE016F5F7F4F81E390E014
:1054F0000E94272BBE016F5F7F4FCE0143960E9413
:10550000F51A6AE971E0CE0101960E94231B4F89CA
:10551000588D6B897C89CE0101960E94941A811165
:1055200004C0CE0101960E94C21A1092A7031092E5
:10553000A6031092A9031092A8031092AB03109235
:10554000AA03BE016F5F7F4F86EA93E00E940C1BA7
:1055500089819A810E948D2C8B899C890E948D2C37
:1055600065E671E08CEA93E00E94231B65E671E03A
:1055700082EB93E00E94231B68960FB6F894DEBF7F
:105580000FBECDBFDF91CF9108959F92AF92BF9292
:10559000CF92DF92EF92FF920F931F93CF93DF93FF
:1055A0007C016B015A01E091C403F091C5030284B0
:1055B000F385E02D84EC93E0099500E010E0912C58
:1055C000C0E0D0E0CE0187709927892B11F0990CAB
:1055D0000BC0FE0183E0F595E7958A95E1F7E00FB2
:1055E000F11FEC0DFD1D949097FE0FC0E091C403D8
:1055F000F091C5030484F585E02D9501A701BE0156
:10560000645C7F4F84EC93E009952196C837D105FF
:10561000C9F68FEFE81AF80A015F1F4F083087E0DC
:10562000180771F6E091C403F091C5030688F78965
:10563000E02D84EC93E0DF91CF911F910F91FF90CB
:10564000EF90DF90CF90BF90AF909F900994BB27D1
:105650004A3031F4992322F4BDE2909581959F4F11
:105660000C94332BBB27FB015527AA27880F991FC2
:10567000AA1FA41710F0A41B83955051B9F7A05D81
:10568000AA3308F0A95DA193009779F7B111B193FE
:105690001192CB010C944C2BDC01FC01672F719112
:1056A0007723E1F7329704C07C916D937083629108
:1056B000AE17BF07C8F308952F923F924F925F92A3
:1056C0006F927F928F929F92AF92BF92CF92DF9212
:1056D000EF92FF920F931F93CF93DF93CDB7DEB777
:1056E000CA1BDB0B0FB6F894DEBF0FBECDBF09940B
:1056F0002A88398848885F846E847D848C849B8462
:10570000AA84B984C884DF80EE80FD800C811B816F
:10571000AA81B981CE0FD11D0FB6F894DEBF0FBE9E
:10572000CDBFED010895A29FB001B39FC001A39F1B
:10573000700D811D1124911DB29F700D811D1124CA
:10574000911D0895052E97FB1EF400940E94B92B1D
:1057500057FD07D00E94D02B07FC03D04EF40C94C9
:10576000B92B50954095309521953F4F4F4F5F4F46
:10577000089590958095709561957F4F8F4F9F4FBD
:1057800008950E94932B332312F48A1B9B0B0C94D5
:10579000CB2B0E94932BB7FF0895821B930B089588
:1057A000A1E21A2EAA1BBB1BFD010DC0AA1FBB1F25
:1057B000EE1FFF1FA217B307E407F50720F0A21B97
:1057C000B30BE40BF50B661F771F881F991F1A9404
:1057D00069F760957095809590959B01AC01BD012E
:1057E000CF010895EE0FFF1F0590F491E02D09946D
:1057F000CF93DF938230910510F482E090E0E09146
:105800000D04F0910E0420E030E0C0E0D0E03097CD
:1058100011F14081518148175907C0F048175907C5
:1058200061F482819381209719F09B838A832BC036
:1058300090930E0480930D0426C02115310519F0B4
:105840004217530718F49A01BE01DF01EF010280ED
:10585000F381E02DDCCF2115310509F1281B390B2F
:105860002430310590F412968D919C911397611517
:10587000710521F0FB019383828304C090930E0491
:1058800080930D04FD01329644C0FD01E20FF31F29
:1058900081939193225031092D933C933AC02091EA
:1058A0000B0430910C04232B41F42091060130911C
:1058B000070130930C0420930B04209104013091D4
:1058C00005012115310541F42DB73EB7409108017E
:1058D00050910901241B350BE0910B04F0910C044D
:1058E000E217F307A0F42E1B3F0B2817390778F0B7
:1058F000AC014E5F5F4F2417350748F04E0F5F1F16
:1059000050930C0440930B048193919302C0E0E008
:10591000F0E0CF01DF91CF9108950F931F93CF93C4
:10592000DF93009709F48CC0FC0132971382128236
:1059300000910D0410910E040115110581F42081D0
:105940003181820F931F20910B0430910C04281792
:10595000390779F5F0930C04E0930B0471C0D8017A
:1059600040E050E0AE17BF0750F412962D913C91E5
:105970001397AD012115310509F1D901F3CF9D012F
:10598000DA013383228360817181860F971F82172A
:10599000930769F4EC0128813981260F371F2E5FA8
:1059A0003F4F318320838A819B8193838283452B60
:1059B00029F4F0930E04E0930D0442C01396FC9377
:1059C000EE931297ED01499159919E01240F351FD5
:1059D000E217F30771F480819181840F951F02967D
:1059E00011969C938E938281938113969C938E93B0
:1059F0001297E0E0F0E0D80112968D919C911397F8
:105A0000009719F0F8018C01F6CF8D919C919801C7
:105A10002E5F3F4F820F931F20910B0430910C0497
:105A20002817390769F4309729F410920E04109260
:105A30000D0402C01382128210930C0400930B0415
:105A4000DF91CF911F910F910895A0E0B0E0EBE2BC
:105A5000FDE20C94602BEC01009721F4CB010E9435
:105A6000F82BB8C0FC01E60FF71F9C01225031094A
:105A7000E217F30708F4ACC0D9010D911C911197FE
:105A800006171707B0F00530110508F49FC0C801CC
:105A900004978617970708F499C002501109061B4E
:105AA000170B019311936D937C93CF010E948D2C62
:105AB0008DC05B01A01AB10A4C01800E911EA0910D
:105AC0000D04B0910E0440E050E0E12CF12C109751
:105AD00009F44AC0A815B905D1F56D907C901197CD
