:100000000C943C130C9464130C9464130C946413BC
:100010000C9464130C9464130C9464130C94641384
:100020000C9464130C9464130C9464130C94641374
:100030000C9464130C9464130C9464130C94641364
:100040000C945A250C9464130C944C180C94261898
:100050000C9464130C9464130C9464130C94641344
:100060000C947E180C94641300000000070001003B
:100070000004110803F009000A060B01EF11000D3E
:10008000100D00F12B000D140D00EF4C0013111595
:1000900001F0750010111101F0970004060601EF40
:1000A0009A0006160801EFAB0006160801EFBC0027
:1000B00007080901EFC3000B0B0E02F6D30004077B
:1000C0000601FED70006030801F9DA000403060161
:1000D000FEDC0006110700F0E9000C110D01F00331
:1000E0000107110E03F012010C110D01F02C010C8F
:1000F000110D01F046010B110D01F05E010C110D07
:1001000001F078010C110D01F092010B110D01F0BD
:10011000AA010C110D01F0C4010C110D01F0DE015A
:10012000040C0601F5E40104100601F5EC010C0CC9
:100130000E01F5FE010C090E01F70C020C0C0E016C
:10014000F51E020C120F02EF390215151701EF719F
:100150000210121100EF95020E121102EFB50210FB
:10016000121101EFD9020F121102EFFB020D121052
:1001700002EF19030C120F02EF340310121201EFF9
:1001800058030E121202EF780304120702EF8103E4
:100190000B120E01EF9A0310121102EFBE030B12A5
:1001A0000F02EFD70311121502EFFE030F12120216
:1001B000EF200411121301EF47040E121002EF6733
:1001C0000411131301EF900410121102EFB4040F85
:1001D000121001EFD6040C120F02EFF1040E1212EE
:1001E00002EF11050F121000EF330517121700EF81
:1001F00067050F121001EF890510120F00EFAD0512
:100200000D120F01EFCB0506170802EFDD050711F0
:100210000700F0EC0506170800EFFE050C0B0E01B9
:10022000F00F060F020DFF04130604030600EF157E
:10023000060D0D0E01F42B060D120F02EF49060CF0
:100240000D0D01F45D060D120F01EF7B060D0D0E75
:1002500001F4910607120801EFA1060D120F01F437
:10026000BF060C120E02EFDA0604120702EFE306D5
:1002700006170700EFF5060C120E02EF1007041226
:100280000602EF1907130D1502F438070C0D0F02C3
:10029000F44C070D0D0F01F462070D120F02F480EC
:1002A000070D120F01F49E07080D0902F4AB070CAD
:1002B0000D0D01F4BF07060F0801F2CB070C0D0F5F
:1002C00002F4DF070D0D0D00F4F507120D1300F415
:1002D00013080D0D0D00F429080D120D00F4470848
:1002E0000A0D0C01F4580806170901EF6A080216F6
:1002F0000702EF700806170903EF82080C050C00CF
:10030000F9FFFFFFFF766660FFF0F3FCFF3FCF6170
:1003100098600E70738318FFF7FFBFFC7383181883
:10032000C7FFBFFDFFE31839C1CE0E7002007E0F7C
:10033000F87FE7AFB93DC80F403F00FF00FC05FF65
:1003400027F93FEBEFFE3FE07C008004003C060F06
:10035000C181FC30738C0C3181CE601FCC03F30063
:100360003C678019F8027F80CE7011860639C187FC
:10037000F8307E0C078007801FC03FE03CE03CE087
:100380003EE00FC007003F8C7FCCF1FCF0F8F07826
:10039000F8F87FFC3FDE1F8EFFFF660C738E71C77F
:1003A00038E38E38E38E1C71C38E1870C3871C38F7
:1003B000E3871C71C71C71CE38E71C638010235F74
:1003C000F3871B140E01C038070FFFFFFFF8700EF4
:1003D00001C03800FFF336C0FFFFC0FFF00C3086CD
:1003E00018610C30C218618430C01F83FC7FE79E07
:1003F000F0FF0FF0FF0FF0FF0FF0FF0FF0F79E7F01
:10040000E3FC0F00061C7FFFE3C78F1E3C78F1E37F
:10041000C78F1E1F83FC7FEF9FF0FF0F00F00F01BF
:10042000E03C0F81E03C03807FF7FF7FF01F07FC7B
:10043000FFEF1EF1E01E03C07807C01E00F00FF0B2
:10044000FF1F7FE7FC1F8003C0F81F07E1BC278C5C
:10045000F31E63D87BFFFFFFFE0780F01E03C03F43
:10046000E7FE7FE7006006F87FCFFEF1F00F00F0B7
:100470000F00FE1EFFE7FC3F000F83FC7FE79FF0AD
:100480000F78FFCFFEF9FF0FF0FF0FF0F79F7FE32C
:10049000FC0F80FFFFFFFF80E01C0701E0380F0129
:1004A000C0780F01E0380F01E03C000F03FC7FC76C
:1004B0009E70E70E39C1F83FC79EF0FF0FF0FF9F17
:1004C0007FE3FC1F801F03FC7FEF9EF0EF0FF0FF28
:1004D0000FF9F7FF3FF1EF00EF1E7FE7FC1F00FF72
:1004E000F000000FFFFFF000000FFF116C0010077D
:1004F00003F1FC7E0F80E00FC03F807F00F003FF20
:10050000FFFFFFF000000000FFFFFFFFF0000E0004
:10051000FC07F00FE01F00F07F1F8FE0F008001FC6
:1005200007FC7FEF9FF0FF0F00F00F01E03C07801A
:10053000F00E00E00000F00F00F000FE001FFC03D2
:10054000C0F03801C38007183D9987EC6C71C3C3B4
:10055000061E1830F181878C187C60C3638E3B8F38
:10056000DF8C3CF0700001C0000780801FFE001F80
:10057000C00003E003E003E007F007F007700F7826
:100580000E780E381E3C1C3C3FFC3FFE3FFE780EB2
:10059000780F700FF007FFC3FFCFFF3C3EF07BC129
:1005A000EF0FBFFCFFE3FFCF07BC0FF03FC0FF071B
:1005B000FFFEFFFBFF8007E01FF83FFC7C3E781F3B
:1005C000F80FF000F000F000F000F000F000F80F7D
:1005D000781F7C3E3FFE1FFC07F0FFE1FFE3FFE7D3
:1005E00083EF03DE07FC07F80FF01FE03FC07F80BA
:1005F000FF03FE07BC1F7FFCFFF1FF80FFF7FFBF7B
:10060000FDE00F007803C01FFCFFE7FF3C01E00F97
:10061000007803C01FFFFFFFFFC0FFFFFFFFFF00C9
:10062000F00F00F00FFEFFEFFEF00F00F00F00F0F4
:100630000F00F00F0003F00FFC3FFE3E1F7807781D
:1006400000F000F000F07FF07FF07FF00778077C8B
:100650000F3E1F3FFB0FFB03E3F03FC0FF03FC0F08
:10066000F03FC0FF03FFFFFFFFFFFF03FC0FF03F62
:10067000C0FF03FC0FF03FC0F0FFFFFFFFFFFFFFD5
:10068000FFFF01E03C0780F01E03C0780F01E03C53
:1006900007F8FF1FE3FC7BFE7FC3E0F03EF03CF079
:1006A00078F0F0F1E0F3C0F780FF00FF80FF80FBFF
:1006B000C0F1E0F0F0F0F0F078F03CF03EF01EF029
:1006C0001E03C0780F01E03C0780F01E03C0780FC6
:1006D00001E03C07FFFFFFFCF81FFE0FFF0FFF8745
:1006E000FFC3FFE1FFF9FFFCEFFE77FB3BFDDDFE03
:1006F000FCFF7E7F9F3FCF9FE78FF3C7F8E3C0F0FB
:100700001FF03FF07FE0FFE1FFC3FDC7FB8FF39FCA
:10071000E73FC77F8FFF0FFE1FFC1FF81FF03FE072
:100720003C03E00FFC0FFF87C7C780F3C07BC01FEF
:10073000E00FF007F803FC01FE00F780F3C078F04B
:10074000F87FFC1FFC03F800FFE3FFEFFFBC1FF086
:100750003FC0FF03FC1FFFFBFFCFFE3C00F003C0C8
:100760000F003C00F003C00003E00FFC0FFF87C741
:10077000C780F3C07BC01FE00FF007F803FC01FE49
:1007800004F787F3C3F8F0F87FFC1FFF83F18000C4
:1007900000FFF8FFFCFFFCF03EF01EF01EF01EF024
:1007A0003CFFF8FFF0FFF8F03CF03CF03CF03CF090
:1007B0003CF03CF01F0FC07FE1FFE7C3EF03DE001A
:1007C0003C007F007FF03FF80FF801F001FE03DEF0
:1007D0000FBFFE3FF81FC0FFFFFFFFF0F00F00F05C
:1007E0000F00F00F00F00F00F00F00F00F00F00FFF
:1007F00000F0F03FC0FF03FC0FF03FC0FF03FC0F11
:10080000F03FC0FF03FC0FF03FC0F7879FFE3FF0B3
:100810003F00700EF03DE079C0E381C787870E0E80
:100820001C1E781CE039C073807E00FC01F801E0DA
:1008300003C0078070381CE0F079E1F0F3C3E1E316
:1008400087C3870F870E3B9E1E77381CEE7039CC0E
:10085000E07399C06E3F00FC7E01F8FC03F0F803E2
:10086000E1E00783C00F0780F03CF0F9E1E1E783A6
:10087000CF03FC03F007E007800F003F00FF01FEFD
:10088000079E0F1E3C3CF83DE078F01E781E783C39
:100890003C3C3C781E780E700FF007E007E003C088
:1008A00003C003C003C003C003C003C003C0FFFFF5
:1008B000FFFFFE01F00F00F00F00F80780780780BF
:1008C0007C03C03C03C01FFFFFFFFFC0FFFFFCF322
:1008D000CF3CF3CF3CF3CF3CF3CF3CFFFFC0C18113
:1008E0000306040C1810306040C1810306FFFFCFDF
:1008F0003CF3CF3CF3CF3CF3CF3CF3CFFFFFC00F33
:1009000000F00F01F81B839C39C30C70E70EE070F8
:10091000FFFFFFFCE6301F83FF1FFDE1E00F03F93F
:10092000FFDF1EF0F78FBFFCFFE3CF80F007803CB6
:1009300001E00F007BC3FF9FFEF8F783FC1FE0FF81
:1009400007F83FE3DFFEFFE7BE000F83FE7FF78F70
:10095000F07F00F00F00F0778F7FF3FE0F800078BC
:1009600003C01E00F0078FBCFFEFFF78FF83FC1F62
:10097000E0FF07F83DE3EFFF3FF8FBC01F81FE1FDC
:10098000F9F1CF077FFBFFDE00F003C39FFC7FC0C0
:10099000F8003EFDFBC79FBF3C78F1E3C78F1E3CCC
:1009A00078F01E79FBDFFEF1FF07F83FC1FE0FF084
:1009B0007FC7DFFE7FF1F7803C01FF1E7FF0FE0066
:1009C000F00F00F00F00F00F7CFFEFFFF9FF0FF0CA
:1009D000FF0FF0FF0FF0FF0FF0FF0FFFF00FFFFF13
:1009E000FFFFFFFF3CF3C000F3CF3CF3CF3CF3CF5E
:1009F0003CF3CFFFFF80F00F00F00F00F00F0FF17E
:100A0000EF3CF78FF0FF0FF8FF8F3CF1CF1EF0EFB8
:100A10000FFFFFFFFFFFFFFFFFFFF78F9FFBFBFFB6
:100A2000FFFCF8FF1E1FE3C3FC787F8F0FF1E1FE90
:100A30003C3FC787F8F0FF1E1EF7CFFEFFFF9FF079
:100A4000FF0FF0FF0FF0FF0FF0FF0FF0F00F81FF2F
:100A50001FFCF1EF07F83FC1FE0FF07BC79FFC7F43
:100A6000C0F800F7C7FF3FFDF1EF07F83FC1FE0FE9
:100A7000F07FC7BFFDFFCF787803C01E00F007806E
:100A8000000F79FFDFFEF1FF07F83FC1FE0FF07B9B
:100A9000C7DFFE7FF1F7803C01E00F007803C0F371
:100AA000F7FFF8F0F0F0F0F0F0F0F0F01F87FCFF47
:100AB000EF0FF80FF07FE0FF01FF0FFFE7FE1F8051
:100AC00079E7BFFDE79E79E79E7DF3C0F0FF0FF069
:100AD000FF0FF0FF0FF0FF0FF0FF1FFFF7FF3EF0DB
:100AE000F07B839E1CF1E38E1C707783B81DC07E63
:100AF00003E01F007000F0E1DC78771F3DE7CF795D
:100B0000B38E6CE3BB38EEFC1F3F07C7C1F1F07C2E
:100B1000780E1E0078F3C78F783B81FC07C01E015A
:100B2000F01FC0EF0F78F1E78700F07B839E1C7108
:100B3000E38E1E707383B81FC07E03E00F00700346
:100B4000803C07C03E01E000FFFFFFFC0F0783C1B0
:100B5000E0F0783C0FFFFFFFC01CF3CE38E38E3887
:100B6000E3BCF0E38E38E38E3CF1C0FFFFFFFFFFF4
:100B7000F0E38F1C71C71C71C70F3DC71C71C71CE8
:100B8000F3CE00780FE0CF307F01E00000000000DE
:100B90000000000000000000000000000000000055
:100BA0000000000000000000000000000000000045
:100BB0000000000000000000000000000000000035
:100BC0000000000000000000000000000000000025
:100BD0000000000000000000000000000000000015
:100BE0000000000000000000000000000000000005
:100BF00000000000000000000000000000000000F5
:100C000000000000000000000000000000000000E4
:100C100000000000000000000000000000000000D4
:100C200000000000000000000000000000000000C4
:100C300000000000000000000000000000000000B4
:100C4000000000000000180000000000000000008C
:100C5000000000000018000000000000000000007C
:100C6000000000003C000000000000000000000048
:100C70000000007E000000000000000000000000F6
:100C800000007E00000000000000000000000000E6
:100C900000FF000000000000000000000000000055
:100CA000FF0000000000000000000000000001FF45
:100CB0008000000000000000000000000001FF8034
:100CC00000000000000000000000000003FFC00062
:100CD000000000000000000000000007FFE000002E
:100CE0000000000000000000000007FFE00000001E
:100CF0000000000000000000000FFFF000000000F6
:100D000000000000000000000FFFF00000000000E5
:100D1000000000000000001FFFF8000000000000BD
:100D20000000000000001FFFF800000000000000AD
:100D300000000000003FFFFC000000000000000079
:100D4000000000007FFFFE00000000000000000027
:100D50000000007FFFFE0000000000000000000017
:100D60000000FFFFFF000000000000000000000086
:100D700000FFFFFF00000000000000000000000175
:100D8000FFFFFF800000000000000000000003FFE4
:100D9000FFFFC00000000000000000000003FFFF94
:100DA000FFC00000000000000000000007FFFFFF80
:100DB000E00000000000000000000007FFFFFFE06F
:100DC000000000000000000000000FFFFFFFF00027
:100DD0000000000000000000000FFFFFFFF0000017
:100DE00000000000000000001FFFFFFFF8000000EF
:100DF000000000000000003FFFFFFFFC00000000BB
:100E00000000000000003FFFFFFFFC0000000000AA
:100E100000000000007FFFFFFFFE00000000000058
:100E2000000000007FFFFFFFFE0000000000000048
:100E3000000000FFFFFFFFFF0000000000000000B7
:100E40000000FFFFFFFFFF000000000000000000A7
:100E500001FFFFFFFFFF8000000000000000000313
:100E6000FFFFFFFFFFC0000000000000000003FFC5
:100E7000FFFFFFFFC0000000000000000007FFFEB2
:100E8000007FFFE0000000000000000007FFFE0000
:100E90007FFFE000000000000000000FFFFE007F69
:100EA000FFF000000000000000001FFFFE007FFFB9
:100EB000F800000000000000001FFFFE007FFFF8A8
:100EC00000000000000000003FFFFE007FFFFC006C
:100ED000000000000000003FFFFE007FFFFC00005C
:100EE0000000000000007FFFFE007FFFFE0000000A
:100EF00000000000007FFFFE007FFFFE00000000FA
:100F000000000000FFFFFE007FFFFF000000000068
:100F1000000001FFFFFE007FFFFF800000000000D7
:100F20000001FFFFFE007FFFFF80000000000000C7
:100F300003FFFFFE007FFFFFC00000000000000372
:100F4000FFFFFE007FFFFFC000000000000007FF62
:100F5000FFFE007FFFFFE000000000000007FFFF32
:100F6000FE007FFFFFE00000000000000FFFFFFE1B
:100F7000007FFFFFF00000000000001FFFFFFE00E9
:100F80007FFFFFF80000000000001FFFFFFE007F52
:100F9000FFFFF80000000000003FFFFFFE007FFFA2
:100FA000FFFC0000000000003FFFFFFFFFFFFFFF0E
:100FB000FC0000000000007FFFFFFFFFFFFFFFFEBF
:100FC000000000000000FFFFFFFFFFFFFFFFFF002A
:100FD0000000000000FFFFFFFFFFFFFFFFFF00001A
:100FE00000000001FFFFFFFFFFFFFFFFFF80000089
:100FF000000001FFFFFFFFFFFFFFFFFF8000000079
:101000000003FFFFFFFFFFFFFFFFFFC00000000026
:1010100003FFFFFFFFFFFFFFFFFFC000000000070F
:10102000FFFFFFFFFFFFFFFFFFE0000000000FFFDB
:10103000FFFFFFFFFFFFFFFFF0000000000FFFFFBB
:10104000FFFE007FFFFFFFF0000000001FFFFFFF1B
:10105000FE007FFFFFFFF8000000001FFFFFFFFE04
:10106000007FFFFFFFF8000000003FFFFFFFFE00D2
:101070007FFFFFFFFC000000003FFFFFFFFE007F3F
:10108000FFFFFFFC000000007FFFFFFFFE007FFF6F
:10109000FFFFFE00000000FFFFFFFFFE007FFFFFDD
:1010A000FFFF00000000FFFFFFFFFE007FFFFFFFCC
:1010B000FF00000001FFFFFFFFFE007FFFFFFFFFBB
:1010C00080000001FFFFFFFFFE007FFFFFFFFF80AA
:1010D000000003FFFFFFFFFFFFFFFFFFFFFFC00058
:1010E0000007FFFFFFFFFFFFFFFFFFFFFFE0000024
:1010F00007FFFFFFFFFFFFFFFFFFFFFFE000000F05
:10110000FFFFFFFFFFFFFFFFFFFFFFF000000FFFEC
:10111000FFFFFFFFFFFFFFFFFFFFF000001FFFFFCC
:10112000FFFFFFFFFFFFFFFFFFF800001FFFFFFFB4
:10113000FFFFFFFFFFFFFFFFF800003FFFFFFFFF84
:10114000FFFFFFFFFFFFFFFC00007FFFFFFFFFFF30
:10115000FFFFFFFFFFFFFE00007FFFFFFFFFFFFF1E
:10116000FFFFFFFFFFFE0000FFFFFFFFFFFFFFFF8E
:10117000FFFFFFFFFF0000FFFFFFFFFFFFFFFFFF7D
:10118000FFFFFFFF0001FFFFFFFFFFFFFFFFFFFF6C
:10119000FFFFFF8001FFFFFFFFFFFFFFFFFFFFFFDC
:1011A000FFFF8003FFFFFFFFFFFFFFFFFFFFFFFFCA
:1011B000FFC0000000000000000000000000000070
:1011C000000000000000000000000000000000001F
:1011D000000000000000000000000000000000000F
:1011E00000000000000000000000000000000000FF
:1011F00000000000000000000000000000000000EF
:1012000000000000000000000000000000000000DE
:1012100000000000000000000000000000000000CE
:1012200000000000000000000000000000000000BE
:1012300000000000000000000000000000000000AE
:10124000000000000000000000000000000000009E
:10125000000000000000000000000000000000008E
:10126000000000000000000000000000000000007E
:10127000000000000000000000000000000000006E
:10128000000000000000000000000000000000005E
:10129000000000000000000000000000000000004E
:1012A000000000000000000000000000000000003E
:1012B000000000000000000000000000000000002E
:1012C000000000000000000000000000000000001E
:1012D000000000000000000000000000000000000E
:1012E00000000000000000000000000000000000FE
:1012F00000000000000000000000000000000000EE
:1013000000000000000000000000000000000000DD
:1013100000000000000000000000000000000000CD
:101320000000000000000000000000000000003F7E
:10133000FFFC000000000000000000000000FFFFB4
:10134000FF000000000000000000000000FFFFFFA1
:10135000000000000000000000000000FFFFFF0090
:101360000000000000000000000000FFFFFF000080
:1013700000000000000000000001FFFFFF800000EF
:10138000000000000000000001FFFFFF80000000DF
:101390000000000000000001FFFFFF8000000000CF
:1013A00000000000000001FFFFFF800000000000BF
:1013B000000000000001FFFFFF80000000000000AF
:1013C0000000000001FFFFFF80000000000000009F
:1013D00000000001FFFFFF8000000000000000008F
:1013E000000003FFFFFFC00000000000000000003D
:1013F0000003FFFFFFC0000000000000000000002D
:1014000003FFFFFFC0000000000000000000000319
:10141000FFFFFFC00000000000000003E0000FFF1E
:10142000FFFFF00007C00000000003F8003FFFFFCF
:10143000FFFC001FC00000000007FF007FFFFFFF50
:10144000FE00FFE0000000000FFFC1FFFFFFFFFFF5
:1014500083FFF0000000000FFFFBFFFFFFFFFFDF37
:10146000FFF0000000001FFFFFFFFFFFFFFFFFFF77
:10147000F8000000001FFFFFFFFFFFFFFFFFFFF866
:10148000000000003FFFFFFFFFFFFFFFFFFFFC002A
:101490000000003FFFFFFFFFFFFFFFFFFFFC00001A
:1014A00000007FFFFFFFFFFFFFFFFFFFFE000000C8
:1014B00000FFFFFFFFFFFFFFFFFFFFFF0000000037
:1014C000FFFFFFFFFFFFFFFFFFFFFF00000001FF27
:1014D000FFFFFFFFFFFFFFFFFFFF80000001FFFF97
:1014E000FFFFFFFFFFFFFFFFFF80000003FFFFFF85
:1014F000FFFFFFFFFFFFFFFFC0000003FFFFFFFF35
:10150000FFFFFFFFFFFFFFC0000007FFFFFFFFFF20
:1015100000FFFFFFFFFFE000000FFFFFFFFFF800ED
:101520001FFFFFFFFFF000000FFFFFFFFFE00007BE
:10153000FFFFFFFFF000000FFFFFFFFF800001FF34
:10154000FFFFFFF0000007FFFFFFFF000000FFFFAD
:10155000FFFFE0000003FFFFFFFE0000007FFFFF32
:10156000FFC0000001FFFFFFFC0000003FFFFFFF86
:10157000800000007FFFFFF80000001FFFFFFE005B
:101580000000003FFFFFF80000001FFFFFFC00000D
:1015900000001FFFFFF00000000FFFFFF800000039
:1015A000000FFFFFF00000000FFFFFF00000000041
:1015B00003FFFFE000000007FFFFC0000000000184
:1015C000FFFFE000000007FFFF800000000001FFB8
:1015D000FFE000000007FFFF800000000001FFFFA8
:1015E000C000000003FFFF800000000001FFFFC0FB
:1015F00000000003FFFF800000000001FFFFC000AB
:10160000000003FFFF800000000001FFFFC000009A
:101610000003FFFF800000000001FFFFC00000008A
:1016200003FFFF800000000001FFFFC00000000377
:10163000FFFF800000000001FFFFC000000003FF6B
:10164000FF800000000001FFFFC000000003FFFF5B
:10165000800000000001FFFFE000000007FFFF80A6
:101660000000000001FFFFE000000007FFFF800016
:1016700000000003FFFFE000000007FFFFC00000C4
:1016800000000FFFFFF00000000FFFFFF000000060
:10169000001FFFFFF00000000FFFFFF80000000038
:1016A0003FFFFFF80000001FFFFFFC000000007F6D
:1016B000FFFFF80000001FFFFFFE00000001FFFF1A
:1016C000FFFC0000003FFFFFFF80000003FFFFFF63
:1016D000FE0000007FFFFFFFC0000007FFFFFFFFCD
:1016E000000000FFFFFFFFE000000FFFFFFFFF8093
:1016F0000001FFFFFFFFF000000FFFFFFFFFE00012
:1017000007FFFFFFFFF000000FFFFFFFFFF8001FC4
:10171000FFFFFFFFF0000007FFFFFFFFFF00FFFFDD
:10172000FFFFFFE0000003FFFFFFFFFFFFFFFFFFE2
:10173000FFFFC0000003FFFFFFFFFFFFFFFFFFFFF2
:10174000FFC0000001FFFFFFFFFFFFFFFFFFFFFFE4
:1017500080000001FFFFFFFFFFFFFFFFFFFFFF8093
:10176000000000FFFFFFFFFFFFFFFFFFFFFF000084
:101770000000FFFFFFFFFFFFFFFFFFFFFF00000074
:10178000007FFFFFFFFFFFFFFFFFFFFE00000000E5
:101790003FFFFFFFFFFFFFFFFFFFFC000000003FD8
:1017A000FFFFFFFFFFFFFFFFFFFC000000001FFF28
:1017B000FFFFFFFFFFFFFFFFF8000000001FFFFF1C
:1017C000FFFFFFFFFFFFFFF8000000000FFFFBFF20
:1017D000FFFFFFFFDFFFF0000000000FFFC1FFFF72
:1017E000FFFFFF83FFF00000000007FF007FFFFF07
:1017F000FFFE00FFE00000000003F8003FFFFFFFD6
:10180000FC001FC00000000003E0000FFFFFFFF01E
:101810000007C00000000000000003FFFFFFC00041
:1018200000000000000000000003FFFFFFC00000F8
:10183000000000000000000003FFFFFFC0000000E8
:101840000000000000000003FFFFFFC000000000D8
:1018500000000000000001FFFFFF8000000000000A
:10186000000000000001FFFFFF80000000000000FA
:101870000000000001FFFFFF8000000000000000EA
:1018800000000001FFFFFF800000000000000000DA
:10189000000001FFFFFF80000000000000000000CA
:1018A0000001FFFFFF8000000000000000000000BA
:1018B00001FFFFFF800000000000000000000000AA
:1018C000FFFFFF000000000000000000000000FF1C
:1018D000FFFF000000000000000000000000FFFF0C
:1018E000FF000000000000000000000000FFFFFFFC
:1018F0000000000000000000000000003FFFFC00AE
:1019000000000000000000000000000000000000D7
:1019100000000000000000000000000000000000C7
:1019200000000000000000000000000000000000B7
:1019300000000000000000000000000000000000A7
:101940000000000000000000000000000000000097
:101950000000000000000000000000000000000087
:101960000000000000000000000000000000000077
:101970000000000000000000000000000000000067
:101980000000000000000000000000000000000057
:101990000000000000000000000000000000000047
:1019A0000000000000000000000000000000000037
:1019B0000000000000000000000000000000000027
:1019C0000000000000000000000000000000000017
:1019D0000000000000000000000000000000000007
:1019E00000000000000000000000000000000000F7
:1019F00000000000000000000000000000000000E7
:101A000000000000000000000000000000000000D6
:101A100000000000000000000000000000000000C6
:101A200000000000000000000000000000000000B6
:101A30000000000003FFFFFFFFFFFFFFC0000000EA
:101A400000000003FFFFFFFFFFFFFFC000000000DA
:101A5000000003FFFFFFFFFFFFFFC00000000000CA
:101A60000003FFFFFFFFFFFFFFC0000000000000BA
:101A700003FFFFFFFFFFFFFFC000000000000003A7
:101A8000FFFFFFFFFFFFFFC000000000000003FF9B
:101A9000FFFFFFFFFFFFC000000000000003FFFF8B
:101AA000FFFFFFFFFFC000000000000003FFFFFF7B
:101AB000FFFFFFFFC000000000000003FFFFFFFF6B
:101AC000FFFFFFC000000000000003FF0000000057
:101AD00000FFC000000000000003FF000000000045
:101AE000FFC000000000000003FF0000000000FF36
:101AF000C000000000000003FF0000000000FFC065
:101B000000000000000003FF0000000000FFC00014
:101B1000000000000003FF0000000000FFC0000004
:101B20000000000003FF0000000000FFC0000000F4
:101B300000000003FF0000000000FFC000000000E4
:101B4000000003FF0000000000FFC00000000000D4
:101B50000003FF0000000000FFC0000000000000C4
:101B600003FF0000000000FFC000000000000003B1
:101B7000FF0000000000FFC000000000000003FFA5
:101B80000000000000FFC000000000000003FF0094
:101B900000000000FFC000000000000003FF000084
:101BA000000000FFC000000000000003FF00000074
:101BB0000000FFC000000000000003FF0000000064
:101BC00000FFC000000000000003FF000000000054
:101BD000FFC000000000000003FF8000000001FFC4
:101BE000C000000000000003FFC000000003FFC0B1
:101BF00000000000000003FFE000000007FFC0003D
:101C0000000000000001FFF00000000FFF80000056
:101C10000000000000FFF80000001FFF00000000AF
:101C2000000000007FFC0000003FFE0000000000FC
:101C30000000003FFE0000007FFC000000000000EC
:101C400000001FFF000000FFF8000000000000007F
:101C5000000FFF800001FFF0000000000000000006
:101C600007FFC00003FFE0000000000000000003C9
:101C7000FFE00007FFC0000000000000000001FFBF
:101C8000F0000FFF80000000000000000000FFF8DF
:101C9000001FFF000000000000000000007FFC00AB
:101CA0003FFE000000000000000000003FFE007F3B
:101CB000FC000000000000000000001FFF00FFF813
:101CC000000000000000000000000FFF81FFF00096
:101CD00000000000000000000007FFC3FFE000005C
:101CE000000000000000000003FFE7FFC00000004C
:101CF0000000000000000001FFFFFF800000000066
:101D000000000000000000FFFFFF000000000000D6
:101D10000000000000007FFFFE0000000000000047
:101D200000000000007FFFFE000000000000000037
:101D300000000000FFFFFF000000000000000000A6
:101D4000000001FFFFFF8000000000000000000015
:101D50000003FFE7FFC000000000000000000000DB
:101D600007FFC3FFE0000000000000000000000FBC
:101D7000FF81FFF0000000000000000000001FFFD6
:101D800000FFF8000000000000000000003FFE001F
:101D90007FFC000000000000000000007FFC003F0E
:101DA000FE00000000000000000000FFF8001FFF20
:101DB00000000000000000000001FFF0000FFF80A5
:101DC000000000000000000003FFE00007FFC0006B
:101DD0000000000000000007FFC00003FFE000005B
:101DE0000000000000000FFF800001FFF000000075
:101DF00000000000001FFF000000FFF800000000CE
:101E0000000000003FFE0000007FFC00000000001A
:101E10000000007FFC0000003FFE0000000000000A
:101E20000000FFF80000001FFF000000000000009D
:101E300001FFF00000000FFF800000000000000321
:101E4000FFE000000007FFC000000000000003FFEB
:101E5000C000000003FFC000000000000003FF807E
:101E600000000001FFC000000000000003FF0000B0
:101E7000000000FFC000000000000003FF000000A1
:101E80000000FFC000000000000003FF0000000091
:101E900000FFC000000000000003FF000000000081
:101EA000FFC000000000000003FF0000000000FF72
:101EB000C000000000000003FF0000000000FFC0A1
:101EC00000000000000003FF0000000000FFC00051
:101ED000000000000003FF0000000000FFC0000041
:101EE0000000000003FF0000000000FFC000000031
:101EF00000000003FF0000000000FFC00000000021
:101F0000000003FF0000000000FFC0000000000010
:101F10000003FF0000000000FFC000000000000000
:101F200003FF0000000000FFC000000000000003ED
:101F3000FF0000000000FFC000000000000003FFE1
:101F40000000000000FFC000000000000003FF00D0
:101F500000000000FFC000000000000003FF0000C0
:101F6000000000FFC000000000000003FF000000B0
:101F70000000FFC000000000000003FFFFFFFFFFA4
:101F8000FFFFC000000000000003FFFFFFFFFFFF96
:101F9000FFC000000000000003FFFFFFFFFFFFFF86
:101FA000C000000000000003FFFFFFFFFFFFFFC0B5
:101FB00000000000000003FFFFFFFFFFFFFFC00065
:101FC000000000000003FFFFFFFFFFFFFFC0000055
:101FD0000000000003FFFFFFFFFFFFFFC000000045
:101FE00000000003FFFFFFFFFFFFFFC00000000035
:101FF000000003FFFFFFFFFFFFFFC0000000000025
:102000000003FFFFFFFFFFFFFFC000000000000014
:1020100000000000000000000000000000000000C0
:1020200000000000000000000000000000000000B0
:1020300000000000000000000000000000000000A0
:102040000000000000000000000000000000000090
:102050000000000000000000000000000000000080
:102060000000000000000000000000000000000070
:102070000000000000000000000000000000000060
:102080000000000000000000000000000000000050
:102090000000000000000000000000000000000040
:1020A00000000001036800207E1DEF03038002CFC3
:1020B0000300C130ED0464031281E803850078CB8E
:1020C00005392C003402F70120EA020000C0012388
:1020D000C10110C5023E28C70186360148370100FC
:1020E0003A0155B1020018B603088227F201002612
:1020F0000101E00F0F312B0C0E084EF137071003D2
:102100000E0900E10F000E1403110731C148080F3A
:102110000C31360F118029800000000000230026BA
:10212000002900000000080002010000030407006D
:10213000000000000000000102040810204080019F
:1021400002040810200102040810200000000025ED
:102150000028002B00040404040404040402020206
:10216000020202030303030303000000002400270C
:10217000002A0000000000003E5B4F5B3E3E6B4FBC
:102180006B3E1C3E7C3E1C183C7E3C181C577D5709
:102190001C1C5E7F5E1C00183C1800FFE7C3E7FFB5
:1021A0000018241800FFE7DBE7FF30483A060E2648
:1021B00029792926407F050507407F05253F5A3CA0
:1021C000E73C5A7F3E1C1C08081C1C3E7F14227FE3
:1021D00022145F5F005F5F06097F017F00668995BB
:1021E0006A606060606094A2FFA29408047E0408A4
:1021F00010207E201008082A1C08081C2A08081E27
:10220000101010100C1E0C1E0C30383E3830060E0C
:102210003E0E06000000000000005F000000070006
:102220000700147F147F14242A7F2A1223130864C2
:102230006236495620500008070300001C22410066
:102240000041221C002A1C7F1C2A08083E080800A6
:102250008070300008080808080000606000201046
:102260000804023E5149453E00427F400072494900
:1022700049462141494D331814127F1027454545E1
:10228000393C4A4949314121110907364949493602
:10229000464949291E000014000000403400000097
:1022A00008142241141414141400412214080201C9
:1022B0005909063E415D594E7C1211127C7F4949F5
:1022C00049363E414141227F4141413E7F49494992
:1022D000417F090909013E414151737F0808087F88
:1022E00000417F41002040413F017F081422417F8F
:1022F000404040407F021C027F7F0408107F3E4127
:1023000041413E7F090909063E4151215E7F09197D
:102310002946264949493203017F01033F40404095
:102320003F1F2040201F3F4038403F631408146384
:1023300003047804036159494D43007F4141410240
:1023400004081020004141417F0402010204404082
:10235000404040000307080020545478407F284440
:1023600044383844444428384444287F385454542A
:102370001800087E090218A4A49C787F0804047839
:1023800000447D40002040403D007F102844000074
:10239000417F40007C047804787C08040478384449
:1023A000444438FC1824241818242418FC7C0804FD
:1023B0000408485454542404043F44243C4040201E
:1023C0007C1C2040201C3C4030403C4428102844C9
:1023D0004C9090907C4464544C440008364100007A
:1023E00000770000004136080002010204023C268A
:1023F00023263C1EA1A161123A4040207A38545451
:1024000055592155557941225454784221555478D3
:102410004020545579400C1E527212395555555969
:10242000395454545939555454580000457C41008E
:1024300002457D420001457C407D1211127DF0284D
:102440002528F07C545545002054547C547C0A09BE
:102450007F4932494949323A4444443A324A484829
:10246000303A4141217A3A42402078009DA0A07D37
:102470003D4242423D3D4040403D3C24FF242448F3
:102480007E4943662B2FFC2F2BFF0929F620C0889D
:102490007E090320545479410000447D413048486E
:1024A0004A32384040227A007A0A0A727D0D193188
:1024B0007D2629292F28262929292630484D4020E4
:1024C000380808080808080808382F10C8ACBA2FC0
:1024D000102834FA00007B000008142A1422221469
:1024E0002A14085500550055AA55AA55AAFF55FFAC
:1024F00055FF000000FF00101010FF00141414FF1F
:10250000001010FF00FF1010F010F0141414FC0065
:102510001414F700FF0000FF00FF1414F404FC146F
:102520001417101F10101F101F1414141F00101068
:1025300010F0000000001F101010101F10101010DD
:10254000F010000000FF101010101010101010FFFD
:1025500010000000FF140000FF00FF00001F101714
:102560000000FC04F414141710171414F404F400FD
:1025700000FF00F714141414141414F700F71414C3
:1025800014171410101F101F141414F4141010F04A
:1025900010F000001F101F0000001F14000000FCBE
:1025A000140000F010F01010FF10FF141414FF14AA
:1025B0001010101F00000000F010FFFFFFFFFFF0E1
:1025C000F0F0F0F0FFFFFF0000000000FFFF0F0F32
:1025D0000F0F0F3844443844FC4A4A4A347E020202
:1025E0000606027E027E0263554941633844443C3C
:1025F00004407E201E2006027E020299A5E7A599CE
:102600001C2A492A1C4C7201724C304A4D4D303004
:1026100048784830BC625A463D3E494949007E01EF
:1026200001017E2A2A2A2A2A44445F444440514A0E
:10263000444040444A51400000FF0103E080FF0055
:102640000008086B6B083612362436060F090F0691
:10265000000018180000001010003040FF010100B9
:102660001F01011E00191D1712003C3C3C3C0000DC
:1026700000000000E02BB52D11241FBECFEFD8E0E5
:10268000DEBFCDBF23E0AEEAB1E001C01D92A33AA8
:10269000B207E1F711E0A0E0B1E0E4E8F1E602C042
:1026A00005900D92AE3AB107D9F713E1CBE3D3E130
:1026B00004C02197FE010E949B2ECA33D107C9F79F
:1026C0000E94A4250C94B5300C940000CF92DF92A8
:1026D000EF92FF920F931F93CF93DF936C017A01D8
:1026E0008B01C0E0D0E0CE15DF0581F0D8016D91FF
:1026F0008D01D601ED91FC910190F081E02DC60194
:102700000995892B11F02196EECF7E01C701DF914B
:10271000CF911F910F91FF90EF90DF90CF90089590
:10272000FC01538D448D252F30E0842F90E0821BD7
:10273000930B541710F0CF96089501970895FC015C
:10274000918D828D981761F0828DDF01A80FB11DE8
:102750005D968C91928D9F5F9F73928F90E008950C
:102760008FEF9FEF0895FC01918D828D981731F0C6
:10277000828DE80FF11D858D90E008958FEF9FEF1A
:102780000895FC01918D228D892F90E0805C9F4FF0
:10279000821B91098F739927089587E792E00E9421
:1027A000C11321E0892B09F420E0822F0895FC0158
:1027B000848DDF01A80FB11DA35ABF4F2C91848DCA
:1027C00090E001968F739927848FA689B7892C93FF
:1027D000A089B1898C91837080648C93938D848D52
:1027E000981306C00288F389E02D80818F7D808355
:1027F0000895EF92FF920F931F93CF93DF93EC0115
:1028000081E0888F9B8D8C8D981305C0E889F989AC
:10281000808185FD26C0F62E0B8D10E00F5F1F4FC7
:102820000F731127E02E8C8DE8120CC00FB607FC39
:10283000FACFE889F989808185FFF5CFCE010E9422
:10284000D713F1CF8B8DFE01E80FF11DE35AFF4F37
:10285000F0829FB7F8940B8FEA89FB8980818062B0
:102860000AC09FB7F894EE89FF896083E889F989E7
:1028700080818370806480839FBF81E090E0DF91DE
:10288000CF911F910F91FF90EF900895CF93DF9319
:10289000EC01888D8823C9F0EA89FB89808185FD58
:1028A00005C0A889B9898C9186FD0FC00FB607FCB9
:1028B000F5CF808185FFF2CFA889B9898C9185FFFA
:1028C000EDCFCE010E94D713E7CFDF91CF910895CE
:1028D00080E090E0892B29F00E94CD1381110C94A7
:1028E0000000089585ED8093BC008091BC0084FDBC
:1028F000FCCF1092530208954091E701262F30E05B
:10290000240F311D21323105DCF420915302243093
:10291000C9F4FC0180E090E0861758F43091E7019B
:102920002191DC01A953BE4FA30FB11D2C93019639
:10293000F3CF8091E701680F6093E70180E008958D
:1029400081E0089582E00895089508950895E09142
:102950000C0280910B02E81730F4F0E0E35FFD4FCA
:10296000808190E008958FEF9FEF089590910C0281
:1029700080910B02981750F4E92FF0E0E35FFD4FD0
:10298000208130E09F5F90930C0202C02FEF3FEF59
:10299000C901089580910B0290E020910C02821BE6
:1029A00091090895CF92DF92EF92FF920F931F93B8
:1029B000CF93DF937C01CB018A0120915402222323
:1029C00089F0EB016B01C40ED51ECC15DD0569F055
:1029D0006991D701ED91FC910190F081E02DC70143
:1029E0000995F3CF642F0E947C14C801DF91CF9129
:1029F0001F910F91FF90EF90DF90CF900895CF93AC
:102A0000DF931F92CDB7DEB7698320915402222352
:102A1000D1F020917602203240F021E030E0FC013C
:102A20003383228380E090E015C080915502E82F27
:102A3000F0E0EA5AFD4F998190838F5F80935502B1
:102A40008093760205C061E0CE0101960E947C145D
:102A500081E090E00F90DF91CF9108958F929F9247
:102A6000AF92BF92CF92DF92EF92FF920F931F939C
:102A7000CF93DF93EC016B015A014901E881F981A1
:102A80000284F385E02D0995E881F9810684F785B4
:102A9000E02D9401A501B601CE010995E881F981E7
:102AA0000688F789E02DCE01DF91CF911F910F911C
:102AB000FF90EF90DF90CF90BF90AF909F908F905E
:102AC0000994AF92BF92CF92DF92EF92FF920F9351
:102AD0001F93CF93DF93EC017B016A015901E881D9
:102AE000F9810284F385E02D0995E881F981028856
:102AF000F389E02D9501A601B701CE010995E88182
:102B0000F9810688F789E02DCE01DF91CF911F91E1
:102B10000F91FF90EF90DF90CF90BF90AF9009940E
:102B2000AF92BF92CF92DF92EF92FF920F931F93DB
:102B3000CF93DF93EC017B016A015901E881F981B0
:102B40000284F385E02D0995E881F9810088F189F7
:102B5000E02D9501A601B701CE010995E881F98123
:102B60000688F789E02DCE01DF91CF911F910F915B
:102B7000FF90EF90DF90CF90BF90AF900994CF92ED
:102B8000DF92EF92FF920F931F93CF93DF93EC01AD
:102B90008B017A016901E881F9810284F385E02DD6
:102BA0000995E881F9810484F585E02D9601A70156
:102BB000B801CE010995E881F9810688F789E02DF1
:102BC000CE01DF91CF911F910F91FF90EF90DF9099
:102BD000CF900994EF92FF920F931F93DC01ED9138
:102BE000FC910684F785E02D780101E010E009955D
:102BF0001F910F91FF90EF900895EF92FF920F9326
:102C00001F93DC01ED91FC910684F785E02D78019E
:102C1000890121E030E009951F910F91FF90EF901D
:102C200008950E9488300F931F93CF93DF93EC0198
:102C300088819981009729F02A813B8126173707DF
:102C400088F48B016F5F7F4F0E94C22F009761F065
:102C5000998388831B830A832C813D81232B11F464
:102C6000FC01108281E001C080E0DF91CF911F91D3
:102C70000F9108951F93CF93DF93EC01162FE881F6
:102C8000F9810284F385E02D0995111102C060E2FB
:102C900001C061E2CE010E94C521E881F981068868
:102CA000F789E02DCE01DF91CF911F9109941F93F9
:102CB000CF93DF93EC01162FE881F9810284F3852D
:102CC000E02D0995112311F06DA901C06EA9CE0167
:102CD0000E94C521E881F9810688F789E02DCE019F
:102CE000DF91CF911F9109948F929F92AF92BF92E3
:102CF000CF92DF92EF92FF920F931F93CF93DF93C8
:102D0000EC01490181E0881A9108860E971EC401E2
:102D1000A0E0B0E04B01A12CB12C540199248824EF
:102D2000882A992AAA2ABB2A680181E0C81AD108F0
:102D3000C40ED51EC601A0E0B0E06A01E12CF12C62
:102D40007601DD24CC24C82AD92AEA2AFB2A6AE2A1
:102D5000CE010E94C5212BA16B2D772788279927AB
:102D600027FF18C06EBD0DB407FEFDCFC501AA2711
:102D7000BB278EBD0DB407FEFDCFBB27AB2D9A2D13
:102D8000892D8EBD0DB407FEFDCF8EBC0DB407FEA0
:102D9000FDCF14C0CE010E94C520B5018827992718
:102DA000CE010E94C52099278B2D7A2D692DCE0149
:102DB0000E94C520682DCE010E94C5206BE2CE0185
:102DC0000E94C5212BA16F2D77278827992727FFE0
:102DD00018C06EBD0DB407FEFDCFC701AA27BB27E3
:102DE0008EBD0DB407FEFDCFBB27AF2D9E2D8D2DC3
:102DF0008EBD0DB407FEFDCFCEBC0DB407FEFDCFDA
:102E000014C0CE010E94C520B70188279927CE01A2
:102E10000E94C52099278F2D7E2D6D2DCE010E94F9
:102E2000C5206C2DCE010E94C5206CE2CE01DF9141
:102E3000CF911F910F91FF90EF90DF90CF90BF90B7
:102E4000AF909F908F900C94C5211F93CF93DF93E9
:102E5000EC0163706D8B6230C1F0633001F1613061
:102E600051F080EF90E09987888780E491E09B871C
:102E70008A8718E41DC080E491E09987888780EFF5
:102E800090E09B878A8718E213C080EF90E09987D3
:102E9000888780E491E09B878A8718E809C080E4EE
:102EA00091E09987888780EF90E09B878A8718EE6A
:102EB000E881F9810284F385E02DCE01099566E36E
:102EC000CE010E94C521612FCE010E94C520E8815C
:102ED000F9810688F789E02DCE01DF91CF911F910E
:102EE0000994FC01248135816217730748F48081BD
:102EF0009181009729F0FC01E60FF71F808108956A
:102F000080E00895EF92FF920F931F93CF93DF938A
:102F10006115710511F480E01CC041155105C1F027
:102F20007B01EC018C819D818A01080F191FB8017A
:102F3000CE010E941316882371F3288139818C8178
:102F40009D81B701820F931F0E949F301D830C83C8
:102F500081E0DF91CF911F910F91FF90EF90089545
:102F6000CF93DF93EC0188819981009711F00E9443
:102F7000392F198218821D821C821B821A82DF91CE
:102F8000CF910895EF92FF920F931F93CF93DF930A
:102F9000EC017B018A01BA010E941316811104C061
:102FA000CE010E94B01707C01D830C83B701888132
:102FB00099810E949F30CE01DF91CF911F910F9197
:102FC000FF90EF900895CF93DF93EC0161157105A9
:102FD00059F0FB0101900020E9F73197AF01461B42
:102FE000570B0E94C21702C00E94B017CE01DF919A
:102FF000CF910895CF93DF93EC01FB0186179707DC
:1030000061F0608171816115710529F044815581FC
:103010000E94C21702C00E94B017CE01DF91CF916B
:1030200008956115710579F0FB0101900020E9F721
:103030003197AF01461B570BDC01ED91FC910280EB
:10304000F381E02D099480E090E008951F920F92A3
:103050000FB60F9211242F933F934F935F936F936B
:103060007F938F939F93AF93BF93EF93FF9387E7E4
:1030700092E00E94D713FF91EF91BF91AF919F9182
:103080008F917F916F915F914F913F912F910F9011
:103090000FBE0F901F9018951F920F920FB60F92B0
:1030A00011242F938F939F93EF93FF93E0918702C7
:1030B000F09188028081E0918D02F0918E0282FD74
:1030C00012C09081809190028F5F8F732091910246
:1030D000821751F0E0919002F0E0E958FD4F958F92
:1030E0008093900201C08081FF91EF919F918F9119
:1030F0002F910F900FBE0F901F9018951F920F9257
:103100000FB60F9211242F933F934F935F936F93BA
:103110007F938F939F93AF93BF93EF93FF93809190
:10312000B900887F803609F49CC068F5883209F4BC
:103130005BC090F4803109F454C038F4882309F45A
:10314000F6C0883009F44DC0F6C0883109F44CC08F
:10315000803209F45DC0EFC0803409F468C048F4DF
:10316000803309F455C0883309F0E5C080935102DB
:10317000D8C0803509F44FC0883509F45DC0883463
:1031800009F0D9C0D6C0883909F4C7C0A8F4883777
:1031900009F467C038F4883609F463C0803709F44D
:1031A00060C0C9C0883809F4B8C0803909F45FC06C
:1031B000803809F0C0C05BC0803B09F486C038F499
:1031C000803A09F466C0883A09F47FC0B4C0803CF4
:1031D00009F4A7C0883C09F4A4C0883B09F48AC05C
:1031E000AAC080912E0210C09091500280914F028F
:1031F000981770F5E091500281E08E0F8093500295
:10320000F0E0E15DFD4F80818093BB0085EC86C0DE
:10321000809351028EC0E091500281E08E0F809326
:1032200050028091BB00F0E0E15DFD4F8083909102
:10323000500280914F026EC0E091500281E08E0FEB
:10324000809350028091BB00F0E0E15DFD4F8083F0
:103250008091520281116DC081E080932D0284EA39
:1032600061C083E08093530210920902CFCF809116
:103270000902803208F051C0E091090281E08E0F0E
:10328000809309028091BB00F0E0E751FE4F8083FC
:10329000BDCF85EC8093BC0010925302809109024F
:1032A000803230F4E0910902F0E0E751FE4F1082E5
:1032B0006091090270E0E091AE01F091AF0189EEFA
:1032C00091E009951092090236C084E08093530280
:1032D0001092E8011092E701E091B001F091B10184
:1032E00009958091E701811105C081E08093E70194
:1032F0001092C701E091E80181E08E0F8093E80110
:10330000F0E0E953FE4F80818093BB009091E8018B
:103310008091E701981708F479CF85E88093BC0085
:103320000AC085EC8093BC001092530204C0109236
:1033300051020E947214FF91EF91BF91AF919F9142
:103340008F917F916F915F914F913F912F910F904E
:103350000FBE0F901F901895CF93CFB7F894809120
:10336000C601811127C0EFE5F1E28491E1E4F1E2C9
:103370009491E82FF0E0EE0FFF1FE759FE4DA59165
:10338000B491EC91E92321F461E08AE00E94B52434
:1033900061E08AE00E94E4248CB580618CBD8CB52C
:1033A00080648CBD61E08DE00E94E42461E08BE0EC
:1033B0000E94E4248091C6018F5F8093C601CFBF35
:1033C000CF910895BF92CF92DF92EF92FF920F9329
:1033D0001F93CF93DF93EC014115510561057105F2
:1033E00021F440E052E16AE770E04C8F5D8F6E8F10
:1033F0007F8F88A187FD07C061E00E94E42461E01F
:1034000088A10E94B52461E089A10E94E42460E0C3
:1034100089A10E94B5248BA187FD18C061E08CA111
:103420000E94E42460E08CA10E94B52461E08BA19D
:103430000E94E42461E08BA10E94B5248DA187FD48
:1034400003C060E00E94E4248BA187FD0E94AC19B8
:103450008AA187FD21C061E00E94E42461E08AA185
:103460000E94B52464E670E080E090E00E94202590
:1034700060E08AA10E94B52464E670E080E090E0FC
:103480000E94202561E08AA10E94B52468EC70E0CA
:1034900080E090E00E942025E881F9810284F38594
:1034A000E02DCE0109950AEA10E278018FEFE81AC3
:1034B000F80AF8016491662321F1CE010E94C5212A
:1034C0000E5F1F4FF701E490FE2DFF77BF2E6801BE
:1034D000FF2EFA948FEFF81649F0F6016491CE01B1
:1034E0000E94C520FFEFCF1ADF0AF3CF0B0D111D8D
:1034F000E7FEDBCF68E770E080E090E00E942025E7
:10350000D4CFE881F9810688F789E02DCE010995AD
:1035100080EF90E09987888780E491E09B878A8795
:10352000DF91CF911F910F91FF90EF90DF90CF909F
:10353000BF900895282F30917602313208F04AC0AA
:10354000809153028111FCCF9091940342E040930B
:103550005302209352022FEF2093510210925002F7
:1035600030934F02E6E5F2E0AFE2B2E020E032173E
:1035700021F041914D932F5FFACF10922E022091AE
:103580002E02990F922B90932E0290912D02913042
:1035900061F410922D0290912E029093BB009091B5
:1035A000BC0093FDF8CF95EC01C095EE9093BC0064
:1035B000909153029230E1F3909151029F3F79F044
:1035C00080915102803241F080915102803331F07C
:1035D00084E005C081E003C082E001C083E0109276
:1035E000550210927602109254020895EF92FF92C3
:1035F0000F931F93CF93DF93F09084039FEFF91203
:1036000007C08EBD00000DB407FEFDCF8EB51CC0F7
:10361000E090820307E010E0C82FD0E0BE01002E4A
:1036200002C0759567950A94E2F761708E2D0E942D
:10363000B52461E08F2D0E94B52460E08F2D0E949B
:10364000B5240150110950F7DF91CF911F910F91CF
:10365000FF90EF900895CF93DF93D82FC62F8091DE
:1036600081038F3FD1F48091850391E090935402C0
:103670008093940310925502109276026D2F86E18A
:1036800093E00E94FF146C2F86E193E00E94FF14E8
:1036900081E0DF91CF910C949A1A809184038F3F3F
:1036A00031F480911403909115030E94E52160E0AC
:1036B000809181030E94B5248D2F0E94F61A8C2FD1
:1036C0000E94F61A61E0809181030E94B5248091E6
:1036D00084038F3F21F4DF91CF910C94DB21DF91A4
:1036E000CF9108958F929F92AF92BF92CF92DF9227
:1036F000EF92FF920F931F93CF93DF93C82F809188
:1037000081038F3F09F06CC080918503D1E0D09395
:1037100054028093940310925502109276026C2FFB
:1037200086E193E00E94FF1481E00E949A1A809142
:103730008503D09354028093940310925502109203
:103740007602909153029111FCCF91E09093530235
:10375000909352022FEF2093510210925002109238
:103760004F0290932E0290912E02880F892B809306
:103770002E0280912D02813061F410922D028091F1
:103780002E028093BB008091BC0083FDF8CF85ECB6
:1037900001C085EE8093BC00809153028130E1F33B
:1037A00080915002811103C09091500201C091E0BC
:1037B000AFE2B2E0EDE0F2E080E0891721F02D9178
:1037C00021938F5FFACF10920C0280930B0286E157
:1037D00093E00E94B614B82E81E00E949A1A6AC043
:1037E000809184038F3F31F48091140390911503ED
:1037F0000E94E52160E0809181030E94B5248C2F16
:1038000080680E94F61A80E00E94F61AA090840355
:103810008FEFA81207C01EBC00000DB407FEFDCF3D
:10382000BEB43DC0C091830307E010E0B12CD0E0EE
:10383000FE01ED5DFE4D7F01CE01895C9E4D6C0168
:10384000CB5ADE4D61E08A2D0E94B524F7018491A8
:10385000F6019490FE018490882091F081110E94DD
:103860008C24E82DF0E0EE0FFF1FE75EFE4DA591E2
:10387000B4918C91982231E009F430E0832F02C09A
:1038800080E090E0002E01C0880F0A94EAF7B82A81
:1038900060E08A2D0E94B5240150110998F661E07C
:1038A000809181030E94B524809184038F3F11F49D
:1038B0000E94DB218B2DDF91CF911F910F91FF9003
:1038C000EF90DF90CF90BF90AF909F908F90089532
:1038D000CF93DF9380E00E94721BC82FD0E0DC2FD3
:1038E000CC2781E00E94721B9E01282BC901DF9129
:1038F000CF9108954F925F926F927F92AF92BF9255
:10390000CF92DF92EF92FF920F931F93CF93DF93AB
:103910005C0186E493E00E94E821C12CD12C760161
:10392000C2E0D1E096E1492E512C612C712CC701E7
:10393000B601A30192010E944B2E83E2C80ED11C56
:10394000E11CF11C2F5F3F4F8501AE0169E670E07D
:1039500086E493E00E94EA152196C83181E0D807F9
:1039600031F7C12CD12C760186E1482E512C612CE7
:10397000712CC701B601A30192010E944B2E83E274
:10398000C81AD108E108F1082C5D3F4F8501AE014E
:1039900069E670E086E493E00E94EA152196CF3252
:1039A00081E0D80731F786E493E0DF91CF911F9152
:1039B0000F91FF90EF90DF90CF90BF90AF907F90EE
:1039C0006F905F904F900C94DC21EF92FF920F93D9
:1039D0001F9380910A02882321F0E12C98EFF92EA1
:1039E00004C0EE24EA9489E3F82E0CE310E020EF03
:1039F00030E04AEF50E060E070E086E493E00E943F
:103A00002E158FEF9FEF1F910F91FF90EF900C9469
:103A10007A1CFC0180913E0390913F03892B21F495
:103A200021E0309749F413C080913A0390913B0311
:103A3000309731F421E0FC018081882341F006C0F9
:103A4000BF010E94963021E0892B09F020E0822FEF
:103A5000089540913E0350913F0341155105D1F027
:103A600080913A0390913B034150510950933F0399
:103A700040933E03BC016F5F7F4F0E94A630E091F0
:103A80003A03F0913B0380913E0390913F03E80F8E
:103A9000F91F10820895FC01448155816081718174
:103AA00086E493E00C9466130895FC016370658BC3
:103AB0008481958126813781613039F0633029F026
:103AC000918780873387228708953187208793875E
:103AD000828708956F927F928F929F92AF92BF924A
:103AE000CF92DF92EF92FF920F931F93CF93DF93CA
:103AF000EC014B015A0169013801E881F981028426
:103B0000F385E02D0995E881F9810288F389E02D9C
:103B100087019601A501B401CE010995A501460DC5
:103B2000571D41505109E881F9810288F389E02D40
:103B30009601B401CE010995E881F9810088F189E7
:103B4000E02D9301A501B401CE010995C80CD91C43
:103B5000B60161507109E881F9810088F189E02D91
:103B60009301A501CE010995E881F9810688F789BD
:103B7000E02DCE01DF91CF911F910F91FF90EF903B
:103B8000DF90CF90BF90AF909F908F907F906F907D
:103B900009948F929F92AF92BF92CF92DF92EF9251
:103BA000FF920F931F93CF93DF934C016B015A0148
:103BB000E901DC01ED91FC916217730781F40417B0
:103BC000150724F48B2D5801042F182F0A191B09EF
:103BD00098012F5F3F4F048CF58DE02D12C04017E8
:103BE000510709F52617370724F48D2D6901C62FD3
:103BF000D82F9E012C193D092F5F3F4F068CF78D62
:103C0000E02D8701A501B601C4010995DF91CF918F
:103C10001F910F91FF90EF90DF90CF90BF90AF90EA
:103C20009F908F9008950284F385E02D0995D4012B
:103C3000ED91FC910488F589E02D9E01A501B60166
:103C4000C4010995D401ED91FC910688F789E02D16
:103C5000C401DF91CF911F910F91FF90EF90DF9002
:103C6000CF90BF90AF909F908F900994EF92FF926A
:103C70000F931F93DC011A960D911C911B971896B8
:103C80002D913C911997ED91FC9100A0F1A1E02DAF
:103C90007B0140E050E060E070E009951F910F91DA
:103CA000FF90EF9008954F925F926F927F928F9264
:103CB0009F92AF92BF92CF92DF92EF92FF920F93BB
:103CC0001F93CF93DF936C012B015A0139014801F7
:103CD000DC01ED91FC910284F385E02D0995E20170
:103CE000640C751CD601ED91FC91C615D7055CF4EA
:103CF0000088F189E02D87019401A501BE01C6016C
:103D000009952196EFCF0688F789E02DC601DF914E
:103D1000CF911F910F91FF90EF90DF90CF90BF90C8
:103D2000AF909F908F907F906F905F904F9009948D
:103D30008F929F92AF92BF92CF92DF92EF92FF92BB
:103D40000F931F93CF93DF93EC015B014A0169014D
:103D5000E881F9810284F385E02D099595012C0D08
:103D60003D1D21503109E881F9810488F589E02D54
:103D700078018401A401B501CE010995E881F9819A
:103D80000688F789E02DCE01DF91CF911F910F9129
:103D9000FF90EF90DF90CF90BF90AF909F908F906B
:103DA00009948F929F92AF92BF92CF92DF92EF923F
:103DB000FF920F931F93CF93DF93EC015B014A01B6
:103DC00069017801E881F9810284F385E02D099584
:103DD000C80CD91C860101501109E881F9810488B9
:103DE000F589E02D9501A401B501CE010995E88181
:103DF000F9810688F789E02DCE01DF91CF911F91DF
:103E00000F91FF90EF90DF90CF90BF90AF909F9079
:103E10008F900994EF92FF920F931F93DC01ED9125
:103E2000FC9100A0F1A1E02D09951F910F91FF9049
:103E3000EF9008950F931F93DC01ED91FC91068C98
:103E4000F78DE02D09951F910F9108950F931F9302
:103E5000DC01ED91FC91048CF58DE02D09951F910D
:103E60000F910895DC01ED91FC910084F185E02D26
:103E700009942F923F924F925F926F927F928F920E
:103E80009F92AF92BF92CF92DF92EF92FF920F93E9
:103E90001F93CF93DF9300D000D000D0CDB7DEB713
:103EA0002C017E836D836A015901C801FC82EB827B
:103EB0004801841A950A97FE03C091948194910851
:103EC00035012D813E81621A730A77FE03C0719419
:103ED00061947108681479045CF43A2D2B2D5C010F
:103EE000832F922F3D812E81DE82CD82C32ED22E52
:103EF000AD81BE81AA16BB065CF43C2D2D2D6C0154
:103F0000832F922F3D812E81BE82AD82A32EB22EB1
:103F100085012D813E81021B130B1C012C183D08CD
:103F200037FE03C0319421943108780117FF03C094
:103F30003FEFE31AF30AF594E794C816D9062CF07C
:103F40008FEF9FEF9A83898304C0A1E0B0E0BA832A
:103F5000A9832D813E81A216B30624F1D201ED91F1
:103F6000FC910484F585E02D2B813C816814790453
:103F700024F44D815E81B60103C0A6016D817E816E
:103F8000C2010995E218F308F7FE06C029813A81BB
:103F9000C20ED31EE00EF11E8D819E8101969E837E
:103FA0008D83D7CF26960FB6F894DEBF0FBECDBF58
:103FB000DF91CF911F910F91FF90EF90DF90CF9005
:103FC000BF90AF909F908F907F906F905F904F9039
:103FD0003F902F900895089580E090E00895AF926B
:103FE000BF92CF92EF92FF920F931F93CF93DF93E5
:103FF000EC01262F888D998D009709F040C06A301A
:1040000059F41D861C862C898E859F8538E0239F58
:10401000800D911D112441C06D3009F4AAC08E8914
:104020008823C1F03C898C859D8546E0349F800DB6
:10403000911D112448855985481759075CF41D8640
:104040001C868E859F8548E0349F800D911D11242C
:104050009F878E87EA88FB88088919894E855F8546
:104060006C857D85CC88CE010E9472222C898C853E
:104070009D8536E0239F800D911D112442C06A303A
:1040800079F41D861C862C89FC013696E4918E8578
:104090009F852E9F800D911D11249F878E8769C05B
:1040A0006D3009F466C0FC0134963491631708F44E
:1040B00060C03196E491E61708F45BC0FC013296CB
:1040C00065917491422F50E0431B510937E0349FB2
:1040D0005001359FB00C1124A60EB71EF501329683
:1040E00034913196E491332311F0E1110DC0F501C3
:1040F0003496E4912C898C859D85E29F800D911DDD
:1041000011249D878C8735C0F501359644915E89D1
:10411000552311F16C89E32FF0E0E40FF11D47FD09
:10412000FA956E9FD0016F9FB00D11244C855D856F
:104130004A0F5B1FE885F985E417F5076CF41D86C7
:104140001C86FC013696E4918E859F856E9F800DBE
:10415000911D11249F878E87EA88FB880889198919
:104160004E855F856C857D85CC88CE010E9472224C
:10417000BECF81E090E0DF91CF911F910F91FF9032
:10418000EF90CF90BF90AF900895FC0183A187FF7F
:1041900005C06EBD0DB407FEFDCF089588E090E028
:1041A00020E8A6A1B7A1362F322321F040A93C91E7
:1041B000342B04C030A94C91309534233C9332A960
:1041C000A2A5B3A54C91309534233C9342A9A2A556
:1041D000B3A53C91342B3C932695019711F7089594
:1041E0004F925F926F927F928F929F92AF92BF9207
:1041F000CF92DF92EF92FF920F931F93CF93DF93B3
:10420000EC016B0159014801288539856217730754
:104210000CF067C08A859B85481759070CF061C070
:104220008B010A0D1B1DF8013197DA01A80DB91D8C
:10423000BD0161507109F7FD54C077FD52C0D7FE32
:1042400003C05801C12CD12C57FF03C04D0140E0E1
:1042500050E0E217F3071CF05901AC18BD086817CD
:1042600079071CF04C01841A950A9501D4010E942B
:104270006A2E3B01582E492EE881F98102A4F3A54C
:10428000E02D8401B601CE0109954301A52CB42C83
:104290008BA187FF13C081149104A104B10409F11B
:1042A000FEBC0DB407FEFDCFEEBC0DB407FEFDCF86
:1042B00081E0881A9108A108B108EDCF811491041A
:1042C000A104B10471F06F2DCE010E94C5206E2DA6
:1042D000CE010E94C52081E0881A9108A108B1088A
:1042E000EDCFDF91CF911F910F91FF90EF90DF9075
:1042F000CF90BF90AF909F908F907F906F905F9086
:104300004F900895EF92FF920F931F93CF93DF93F7
:10431000EC0177FD33C0888599856817790774F5B6
:1043200057FD2CC08A859B85481759073CF5E32E1D
:10433000F22EE881F98102A4F3A5E02D01E010E05E
:1043400021E030E0CE0109958BA187FF09C0EEBCCA
:104350000DB407FEFDCFFEBC0DB407FEFDCF0EC0B1
:104360006E2DCE010E94C5206F2DCE01DF91CF9121
:104370001F910F91FF90EF900C94C520DF91CF918A
:104380001F910F91FF90EF900895CF93DF93EC0171
:104390008CA9ECA5FDA59081809589238083CE0111
:1043A0000E94C5209CA9ECA5FDA58081892B808356
:1043B000DF91CF9108950895FC0193A906A4F7A574
:1043C000E02D8081892B808308958CBD9DBD08954B
:1043D0000F931F93CF93DF93EC018BA187FF1EC038
:1043E0000C8D1D8D2E8D3F8D40E052E16AE770E00F
:1043F00090E0041715072607370740F47695679570
:10440000579547959F5F9630A1F797E081E09827F1
:10441000892F806A869591700E94E5218BA9EEA56F
:10442000FFA59081809589238083DF91CF911F9193
:104430000F910895EF92FF920F931F93E090B301B5
:10444000F090B40106E910E020EF30E04AE550E0DA
:1044500060E070E086E493E00E942E151F910F91BA
:10446000FF90EF90089587E792E00E94C113892B97
:1044700029F087E792E00E949F13F5CF6BE671E089
:104480008AE393E00E94E3176BE671E080E493E037
:104490000E94E3171092B20108953FB7F8948091FB
:1044A0009B0390919C03A0919D03B0919E0326B520
:1044B000A89B05C02F3F19F00196A11DB11D3FBF5C
:1044C000BA2FA92F982F8827820F911DA11DB11DEA
:1044D000BC01CD0142E0660F771F881F991F4A95E6
:1044E000D1F708952F923F924F925F926F927F92F1
:1044F0008F929F92AF92BF92CF92DF92EF92FF92F4
:104500000F931F93CF93DF93CDB7DEB76B970FB6A3
:10451000F894DEBF0FBECDBF9B8F8A8F5B011A015F
:10452000D22E1F830E833701C982DC0158962D914C
:104530003C9159972115310509F0E6C018968D91E7
:104540009C911997681779070CF0CDC11A968D9137
:104550009C911B97481759070CF0C5C18C2C912CC6
:10456000FB0126E0C29EE00DF11D1124FB87EA87C6
:104570001E161F060CF0B7C1A40183E0440F551F9F
:104580008A95E1F75D874C87CA01820D931D181645
:1045900019060CF0A8C157968C91811104C05FEAEE
:1045A0005D1508F4D394AA8DBB8DED91FC91119704
:1045B0000284F385E02DCD010995B5E0DB9EC001B5
:1045C0001124F5013596FF87EE87BB82AA8225016B
:1045D0009C012A193B09398B288BA101485F5F4F49
:1045E0005B8B4A8BE889F989E40DF51DED58FE4D8A
:1045F0005491588761013D822C82888580FF13C0C9
:10460000AA8DBB8DED91FC91B981B13031F4048458
:10461000F585E02D2E813F8116C00684F785E02DBB
:10462000EE80FF801AC0EE81FF81E615F705F1F0FC
:10463000AA8DBB8DED91FC91B981B13051F4048408
:10464000F585E02D9301A601B2018A8D9B8D099518
:104650000DC00684F785E02D7301840194014C811F
:104660005D816A817B818A8D9B8D0995E885E695C0
:10467000E887FFEFCF1ADF0A2C813D81280D391D15
:104680003D832C834A895B89C416D50609F0B5CFD2
:104690005FEF451A550A8A819B81880D991D9B837E
:1046A0008A83AE85BF854A165B0609F09BCFEE81F3
:1046B000FF81E615F70509F4F4C0EA8DFB8DA081B2
:1046C000B181F981F13079F4B5016B5F7F4F50967C
:1046D000ED91FC915197830128E030E0A1018A8D92
:1046E0009B8D0995DEC06A857B85681979091E96C0
:1046F000ED91FC911F9773010C851D859401A1011B
:104700008A8D9B8D0995CDC0F9013496E491DE1A0E
:10471000F901329685919491B7E0DB9E800D911D51
:104720001124F901259134913B8B2A8BFC012591B1
:1047300034912901FC013296C490319634913E8720
:10474000329614913196D4904981423058F0612EBE
:10475000012E000C77088D2D0D2C000C990B9987DC
:10476000888704C019861886612C712CAA8DBB8D90
:10477000ED91FC9111970284F385E02DCD0109950F
:10478000B9818B2E912C689CC001699C900D789CFE
:10479000900D1124FC01EA0DFB1DFD87EC871A82A8
:1047A000712C612CE12F110FFF0B95012E0F3F1F74
:1047B0003B872A87AC0CB11CA5014E0F5F1F5F8B96
:1047C0004E8BC1018D0D911DD7FC9A95998F888FC5
:1047D0009E85691608F065C0862D90E0488559854C
:1047E000480F591F489D9001499D300D589D300D2F
:1047F0001124D101A20FB31FB98BA88BEC85FD85C5
:10480000FD83EC83AA84BB84DA80FA85DF1A288DC5
:10481000398D280F391F3D8B2C8B8D2D8A0D4E899C
:104820005F89A416B506C1F1877041F4C2010196F3
:10483000EA89FB89E40DF51D74902C0177FE21C0F7
:10484000AA8DBB8DED91FC91B981B13061F40484E6
:10485000F585E02D2E813F814C895D89B5018A8DDA
:104860009B8D09950EC00684F785E02DEE80FF80B4
:1048700084019401488959896C817D818A8D9B8D41
:104880000995770CEFEFAE1ABE0A2C813D81280DF9
:10489000391D3D832C83C1CF3A813C0D3A8363940B
:1048A00097CFAA8DBB8DED91FC9111970688F78962
:1048B000E02DCD016B960FB6F894DEBF0FBECDBFD5
:1048C000DF91CF911F910F91FF90EF90DF90CF90EC
:1048D000BF90AF909F908F907F906F905F904F9020
:1048E0003F902F9009946B960FB6F894DEBF0FBEE1
:1048F000CDBFDF91CF911F910F91FF90EF90DF908F
:10490000CF90BF90AF909F908F907F906F905F906F
:104910004F903F902F900895833081F028F481309C
:1049200099F08230A1F008958730A9F08830B9F06D
:104930008430D1F4809180008F7D03C0809180000D
:104940008F7780938000089584B58F7702C084B5F7
:104950008F7D84BD08958091B0008F7703C08091D2
:10496000B0008F7D8093B00008951F93CF93DF93A5
:10497000282F30E0F901ED5DFE4D8491F901E95CED
:10498000FE4DD491F901EB5AFE4DC491CC23C1F0F8
:10499000162F81110E948C24EC2FF0E0EE0FFF1FE8
:1049A000E55BFE4DA591B4919FB7F894111104C039
:1049B0008C91D095D82302C0EC91DE2BDC939FBF65
:1049C000DF91CF911F910895CF93DF9390E0FC0189
:1049D000E95CFE4D2491FC01EB5AFE4D8491882345
:1049E00061F190E0880F991FFC01E759FE4DC591D8
:1049F000D491FC01E55BFE4DA591B491611109C014
:104A00009FB7F8948881209582238883EC912E2388
:104A10000BC0623061F49FB7F8948881322F3095D3
:104A200083238883EC912E2B2C939FBF06C08FB7D6
:104A3000F894E8812E2B28838FBFDF91CF910895C2
:104A40008F929F92AF92BF92CF92DF92EF92FF929E
:104A50006B017C010E944D224B015C01C114D10409
:104A6000E104F104F1F00E944D22DC01CB01881930
:104A70009909AA09BB09883E9340A105B10570F3C5
:104A800021E0C21AD108E108F10888EE880E83E01F
:104A9000981EA11CB11CC114D104E104F10419F742
:104AA000DDCFFF90EF90DF90CF90BF90AF909F90C1
:104AB0008F9008951F920F920FB60F9211242F938B
:104AC0003F938F939F93AF93BF9380919703909160
:104AD0009803A0919903B0919A033091960323E033
:104AE000230F2D3720F40196A11DB11D05C026E826
:104AF000230F0296A11DB11D209396038093970367
:104B000090939803A0939903B0939A0380919B0389
:104B100090919C03A0919D03B0919E030196A11DCD
:104B2000B11D80939B0390939C03A0939D03B0932E
:104B30009E03BF91AF919F918F913F912F910F90C5
:104B40000FBE0F901F901895CF93DF9300D0CDB775
:104B5000DEB7789484B5826084BD84B5816084BDFD
:104B600085B5826085BD85B5816085BD80916E000B
:104B7000816080936E00109281008091810082603C
:104B80008093810080918100816080938100809179
:104B900080008160809380008091B1008460809368
:104BA000B1008091B00081608093B00080917A0064
:104BB000846080937A0080917A00826080937A008A
:104BC00080917A00816080937A0080917A00806879
:104BD00080937A001092C100E0918702F0918802E0
:104BE00082E08083E0918302F09184021082E09160
:104BF0008502F091860287E6808310928F02E09111
:104C00008B02F0918C0286E08083E0918902F09122
:104C10008A02808180618083E0918902F0918A021A
:104C2000808188608083E0918902F0918A0280818E
:104C300080688083E0918902F0918A0280818F7D73
:104C4000808340E050E0BA0186E493E00E94E219DC
:104C5000909181039F3F59F18091840361E08F3FE0
:104C6000A1F4892F0E94E42461E0809181030E94D5
:104C7000B5240E94AC1981E58093140310921503AA
:104C8000109287031092860348C00E94E42461E0DA
:104C9000809181030E94E42461E0809182030E945C
:104CA000E42460E0809183030E94E42436C01092E3
:104CB0000C0210920B021092550210927602109282
:104CC000530281E08093520210922D0261E082E152
:104CD0000E94B52461E083E10E94B5248091B9006F
:104CE0008E7F8093B9008091B9008D7F8093B90049
:104CF00088E48093B80085E48093BC0084EA94E162
:104D00009093B1018093B00185EA94E19093AF0153
:104D10008093AE0181E4809385030E94681C8131F9
:104D2000984061F462E083E00E942B1B6AE070E02F
:104D300080E090E00E94202510E01BC0809181035C
:104D40008F3F09F450C0809184038F3F09F04BC01E
:104D500085E5809314031092150384E090E090930E
:104D60008703809386030E94681C81319840D9F59F
:104D7000D9CF812F0E94721B1F5F1134D1F760E0E1
:104D800084E00E942B1B61E080E40E942B1B61E009
:104D90008AE00E942B1B60E680E20E942B1B62E0EF
:104DA00081E20E942B1B64EA81E40E942B1B66E0D7
:104DB00086E50E942B1B61E08AE40E942B1B61E0C8
:104DC0008BE40E942B1B60E08BE40E942B1B61E0B4
:104DD00088E50E942B1B6FEF8BE00E942B1B65E088
:104DE00089E00E942B1B60E070E086E493E00E9463
:104DF000361E60E086E493E00E94251780915E03F2
:104E000090915F03892B49F480915403909155034D
:104E10000696909355038093540383EA90E290930F
:104E20005F0380935E03AEE1AA2EB12CDD24D39400
:104E3000BEE62B2E312C2C0118E6812E912C80E41D
:104E40000E94721B2091C3013091C40187FF09C0E9
:104E500080910501882309F407C28091C501811161
:104E600003C212161306B4F50E94E51C8091BC0122
:104E70009091BD01A091BE01B091BF0180349244D8
:104E8000AF40B105F0F48091C3019091C401843624
:104E900091054CF08091C201882329F00E943322B1
:104EA00062E671E004C00E9433226CE671E087E79D
:104EB00092E00E94111869E671E087E792E00E9493
:104EC00011181092BC011092BD011092BE011092F7
:104ED000BF011FC080910A0281111BC08091BB01DC
:104EE000811117C08091BA01811113C08091BC015A
:104EF0009091BD01A091BE01B091BF010196A11D8D
:104F0000B11D8093BC019093BD01A093BE01B093ED
:104F1000BF018091BC019091BD01A091BE01B091F3
:104F2000BF0180349244AF40B105E1F41092040116
:104F300010920301D0920001D0920101D09202019F
:104F4000D092C501E090B301F090B4010CE310E001
:104F500020EF30E04AEF50E060E070E086E493E05C
:104F60000E942E158091BC019091BD01A091BE01BF
:104F7000B091BF0180349244AF40B105C0F480913C
:104F8000C5018823A1F08FEF9FEF909304018093D8
:104F90000301D0920001D0920101D092020110923F
:104FA000C50180910501811102C00E94E51C10928B
:104FB000C4011092C3018091B901811125C11092E1
:104FC0005C0380910001882371F18091030190912D
:104FD000040190935903809358039093570380934F
:104FE0005603B0925303A09252038BE190E090934A
:104FF000550380935403D0925A03E090C001F0907F
:10500000C1010EE110E022ED30E046E050E06EE13B
:1050100070E086E493E00E942E1582E293E00E9405
:105020004B1D1092000180910101882371F1809144
:105030000301909104019093590380935803909336
:10504000570380935603B0925303A092520389E30F
:1050500090E09093550380935403D0925A03E090CC
:10506000C001F090C1010EE110E022ED30E043E21A
:1050700050E06EE170E086E493E00E942E1588E235
:1050800093E00E944B1D109201018091BA01882388
:1050900009F4BAC080910201882309F4B5C088E000
:1050A00080935A031092B8011092B701E090380330
:1050B000F0903903E114F10411F160903203709023
:1050C00033030CC006151705D0F4E614F704B9F441
:1050D0000F5F1F4F1093B8010093B7010091B70104
:1050E0001091B801B80184E393E00E947117C82EB3
:1050F000B8018EE293E00E9471178C1519F36EE2ED
:1051000073E084E393E00E94FA17409132035091D8
:105110003303E091B701F091B801E090B301F09052
:10512000B40123E030E02E1B3F0B80E3829FB001EF
:10513000839F700D1124849F9001859F300D112451
:1051400020593109260F371F8E9FB0018F9F700D98
:105150001124E8E1CE2EC49EC001C59E900D1124FD
:10516000681B790B61587F4F00E410E046E650E081
:1051700086E493E00E942E15209132033091330390
:10518000C29EC001C39E900D1124EFE7F0E0E81B22
:10519000F90BF0935303E09352033092550320929E
:1051A000540380915E0390915F03892B21F09092CC
:1051B00055038092540310925F0310925E03809116
:1051C00003019091040190935903809358039093A5
:1051D0005703809356038EE293E00E944B1D80910B
:1051E0005E0390915F03892B49F480915403909161
:1051F00055030696909355038093540350925F0392
:1052000040925E031092020187E792E00E94C11370
:10521000892B39F187E792E00E94C1132091B201F6
:10522000892B19F0222309F4D6C1222391F060E0E2
:1052300070E08AE393E00E947117823009F065C044
:105240000E94291D80913E0390913F03892B09F014
:1052500063C06BE671E08AE393E00E94E31710926B
:10526000B2010E946814EBCD232B99F4EE24EA944A
:10527000FE2C0CE310E020EF30E04AEF50E060E05D
:1052800070E086E493E00E942E1580E090E00E949A
:105290007A1C0091C3011091C4010F5F1F4F10933E
:1052A000C4010093C3016EE170E080E090E00E94D1
:1052B00020250436110509F0C2CD8091C201882352
:1052C00009F4BDCDB0925303A092520387E390E05E
:1052D0009093550380935403D0925A03E090C001F9
:1052E000F090C1010EE110E02DEC30E043E250E01F
:1052F0006EE170E086E493E00E942E1562E671E0B4
:1053000086E493E00E9411189ACD6BE671E08AE37F
:1053100093E00E94E31796CF60E070E08AE393E0A9
:105320000E947117082F880F110B00531109109359
:10533000B6010093B5010E94291D0930110509F439
:1053400053C08091B901811184CF20913E033091E7
:105350003F0386E0809FF001819FF00D1124EE5DF8
:10536000FC4F848195812817390761F580913A03B4
:1053700090913B03009729F060817181611571055F
:10538000E9F446E0409FF001419FF00D1124EE5DED
:10539000FC4F0190F081E02D309741F0232BB9F0C4
:1053A000808190E09195819591090AC0009779F0EC
:1053B000232B69F0FC01808190E002C00E949630AE
:1053C000892B29F0F801E050FF4F21E0208326E0EF
:1053D000209FC001219F900D11246AE373E08E5D30
:1053E0009C4F0E94FA1735CF81E791E00E94091D7A
:1053F000882399F0D0920501E090B301F090B401B8
:105400000CE310E020EF30E04AEF50E060E070E0A5
:1054100086E493E00E942E151CCF83E791E00E9462
:10542000091D882341F080910501882309F411CFDB
:105430001092050196C085E791E00E94091D88231E
:1054400069F0D092BA010E941A22D092020167E755
:1054500071E08EE293E00E94E31713C08BE791E0C6
:105460000E94091D882319F01092BA01E7C08DE748
:1054700091E00E94091D882369F01092C4011092E6
:10548000C3011092BC011092BD011092BE01109296
:10549000BF01DFCE8FE791E00E94091D882379F0DC
:1054A0008091BB018111EDCFD092BB014FEF57E04E
:1054B0006BE979E18AE590E00E94652DE2CF81E811
:1054C00091E00E94091D882349F0D092BB010E94FF
:1054D0001A224FEF57E063E972E178C087E691E066
:1054E0000E94091D8111A8C083E891E00E94091D56
:1054F0008111A2C08BE891E00E94091D8823A1F1CF
:105500001092BC011092BD011092BE011092BF0119
:10551000D0920A020E941A2240EE5FEF6BE87BE015
:1055200089E690E00E94652D80E098EF9093C1019C
:105530008093C001E12C28EFF22E06E410E020EF6A
:1055400030E040E050E060E070E086E493E00E94EC
:105550002E15D0920001D092010180910501811198
:1055600078CE0E94E51C75CE85E891E00E94091D69
:10557000882309F466C010920A020E941A22E09061
:10558000B301F090B401F092C101E092C00106E4D1
:1055900010E020EF30E040E050E060E070E086E4B2
:1055A00093E00E942E15D0920001D09201018091CB
:1055B0000501811102C00E94E51C8091BB01882376
:1055C00009F447CE4FEF57E06BE979E18AE590E0C7
:1055D0000E94652D3ECE87E792E00E949F138230A5
:1055E00091F42091440330914503232BF1F48983F6
:1055F0001A8241E050E0BE016F5F7F4F80E493E08C
:105600000E94821707CE8A3091F740E050E06CE0AC
:1056100071E080E493E00E948217D092B20160E4CE
:1056200073E08AE393E00E94FA176BE671E080E48E
:1056300093E00E94E317EECD1092BB010E941A2264
:1056400008CE87E891E00E94091D882319F0D092C6
:10565000B901FFCD89E891E00E94091D882309F472
:105660004EC08091C20181114AC0D092C20187E030
:1056700090E09093B4018093B3019093C101809323
:10568000C00167E070E086E493E00E94361E8091DE
:105690000501811102C00E94E51C80910A02882345
:1056A000E9F040EE5FEF6BE87BE089E690E00E9476
:1056B000652D80E098EF9093C1018093C001E12CAB
:1056C00098EFF92E06E410E020EF30E040E050E0E3
:1056D00060E070E086E493E00E942E158091BB01AB
:1056E000882341F04FEF57E06BE979E18AE590E0DC
:1056F0000E94652DD0920001D0920101AACD8DE8C3
:1057000091E00E94091D882321F08091C20181113E
:105710000AC08FE891E00E94091D882309F499CD01
:105720001092B90196CD1092C2011092B40110925C
:10573000B3011092C1011092C00160E070E086E4F4
:1057400093E00E94361E80910501811102C00E94E3
:10575000E51C80910A02882369F240EE5FEF6BE856
:105760007BE089E690E00E94652D80E098EF9093C1
:10577000C1018093C001E12C88EFF82E06E410E00F
:1057800020EF30E040E050E060E070E086E493E03D
:105790000E942E15AFCFFC0111821082138212825B
:1057A000158214826115710551F0FB0101900020F2
:1057B000E9F73197AF01461B570B0C94C2170895B8
:1057C000CF93DF93CDB7DEB768970FB6F894DEBFFF
:1057D0000FBECDBF10927A021092790288EE93E04C
:1057E000A0E0B0E080937B0290937C02A0937D02C6
:1057F000B0937E0222E131E0309378022093770269
:1058000025EC30E0309384022093830224EC30E0D6
:10581000309386022093850220EC30E0309388029A
:105820002093870221EC30E030938A022093890292
:1058300022EC30E030938C0220938B0226EC30E097
:1058400030938E0220938D0210929002109291025A
:10585000109292021092930220E52093140310926A
:105860001503109219031092180380931A03909352
:105870001B03A0931C03B0931D0384E291E090935B
:1058800017038093160310929103109290031092C5
:105890008F0310928E0310928B0310928A03109242
:1058A00089031092880388E0809381038FEF8093AF
:1058B00084038093830380938203109249031092A0
:1058C000480340EF50E050934B0340934A0320E4D9
:1058D00031E030934D0320934C0350934F0340939A
:1058E0004E03309351032093500310925B031092A8
:1058F000530310925203109255031092540391E0F7
:1059000090935A032FEF3FEF30935903209358039E
:10591000309357032093560390935C0310925D03DA
:1059200010925F0310925E0310927B0310927C032F
:1059300010927E0310927D031092800310927F03D9
:105940009AE09093660399E09093670380936803CD
:1059500025E933E03093610320936003809369036A
:1059600080936A0380936B03109262031092630327
:1059700010926403109265031092710310927003E9
:105980001092780310926D0310926C0310927603BC
:1059900010926F0310926E0310927703EEE5F1E21E
:1059A000E491F0E0EE0FFF1FE55BFE4D85919491D1
:1059B0009093730380937203E0E4F1E2E491E09347
:1059C0007A03EFE5F1E2E491F0E0EE0FFF1FE55B13
:1059D000FE4D859194919093750380937403E1E457
:1059E000F1E2E491E093790386E391E09093470339
:1059F000809346036BE671E080E493E00E94CB2B3A
:105A00006BE671E08AE393E00E94CB2B61E971E0E1
:105A100082E293E00E94CB2B1C8A1B8A1E8A1D8A7D
:105A2000188E1F8A4AE0BE016F5F7F4F88E390E0C7
:105A30000E94D02DBE016F5F7F4FCE0143960E9422
:105A4000E31760EA71E0CE0101960E94CB2B4F89EB
:105A5000588D6B897C89CE0101960E948217811135
:105A600004C0CE0101960E94B01710922903109233
:105A7000280310922B0310922A0310922D031092E8
:105A80002C03BE016F5F7F4F88E293E00E94FA17FC
:105A900089819A810E94392F8B899C890E94392F94
:105AA0006BE671E08EE293E00E94CB2B6BE671E037
:105AB00084E393E00E94CB2B68960FB6F894DEBF88
:105AC0000FBECDBFDF91CF9108959F92AF92BF924D
:105AD000CF92DF92EF92FF920F931F93CF93DF93BA
